{
  "_format": "hh-sol-artifact-1",
  "contractName": "AstralCompatibility",
  "sourceName": "contracts/AstralCompatibility.sol",
  "abi": [
    {
      "inputs": [
        {
          "internalType": "address[]",
          "name": "_pauserAddresses",
          "type": "address[]"
        },
        {
          "internalType": "uint256",
          "name": "_kmsGeneration",
          "type": "uint256"
        }
      ],
      "stateMutability": "nonpayable",
      "type": "constructor"
    },
    {
      "anonymous": false,
      "inputs": [
        {
          "indexed": true,
          "internalType": "bytes32",
          "name": "matchId",
          "type": "bytes32"
        },
        {
          "indexed": false,
          "internalType": "uint8",
          "name": "score",
          "type": "uint8"
        }
      ],
      "name": "CompatibilityRevealed",
      "type": "event"
    },
    {
      "anonymous": false,
      "inputs": [
        {
          "indexed": true,
          "internalType": "address",
          "name": "by",
          "type": "address"
        },
        {
          "indexed": false,
          "internalType": "uint256",
          "name": "timestamp",
          "type": "uint256"
        }
      ],
      "name": "ContractPaused",
      "type": "event"
    },
    {
      "anonymous": false,
      "inputs": [
        {
          "indexed": true,
          "internalType": "address",
          "name": "by",
          "type": "address"
        },
        {
          "indexed": false,
          "internalType": "uint256",
          "name": "timestamp",
          "type": "uint256"
        }
      ],
      "name": "ContractUnpaused",
      "type": "event"
    },
    {
      "anonymous": false,
      "inputs": [
        {
          "indexed": true,
          "internalType": "uint256",
          "name": "requestId",
          "type": "uint256"
        },
        {
          "indexed": true,
          "internalType": "bytes32",
          "name": "matchId",
          "type": "bytes32"
        },
        {
          "indexed": true,
          "internalType": "address",
          "name": "requester",
          "type": "address"
        },
        {
          "indexed": false,
          "internalType": "uint256",
          "name": "kmsGeneration",
          "type": "uint256"
        },
        {
          "indexed": false,
          "internalType": "uint256",
          "name": "timestamp",
          "type": "uint256"
        }
      ],
      "name": "DecryptionRequested",
      "type": "event"
    },
    {
      "anonymous": false,
      "inputs": [
        {
          "indexed": true,
          "internalType": "uint256",
          "name": "requestId",
          "type": "uint256"
        },
        {
          "indexed": true,
          "internalType": "address",
          "name": "kmsNode",
          "type": "address"
        },
        {
          "indexed": false,
          "internalType": "bytes",
          "name": "encryptedShare",
          "type": "bytes"
        },
        {
          "indexed": false,
          "internalType": "bytes",
          "name": "signature",
          "type": "bytes"
        },
        {
          "indexed": false,
          "internalType": "uint256",
          "name": "timestamp",
          "type": "uint256"
        }
      ],
      "name": "DecryptionResponse",
      "type": "event"
    },
    {
      "anonymous": false,
      "inputs": [
        {
          "indexed": false,
          "internalType": "uint256",
          "name": "oldGeneration",
          "type": "uint256"
        },
        {
          "indexed": false,
          "internalType": "uint256",
          "name": "newGeneration",
          "type": "uint256"
        }
      ],
      "name": "KmsGenerationUpdated",
      "type": "event"
    },
    {
      "anonymous": false,
      "inputs": [
        {
          "indexed": true,
          "internalType": "address",
          "name": "user1",
          "type": "address"
        },
        {
          "indexed": true,
          "internalType": "address",
          "name": "user2",
          "type": "address"
        },
        {
          "indexed": false,
          "internalType": "bytes32",
          "name": "matchId",
          "type": "bytes32"
        }
      ],
      "name": "MatchRequested",
      "type": "event"
    },
    {
      "anonymous": false,
      "inputs": [
        {
          "indexed": true,
          "internalType": "address",
          "name": "pauser",
          "type": "address"
        },
        {
          "indexed": false,
          "internalType": "uint256",
          "name": "timestamp",
          "type": "uint256"
        }
      ],
      "name": "PauserAdded",
      "type": "event"
    },
    {
      "anonymous": false,
      "inputs": [
        {
          "indexed": true,
          "internalType": "address",
          "name": "pauser",
          "type": "address"
        },
        {
          "indexed": false,
          "internalType": "uint256",
          "name": "timestamp",
          "type": "uint256"
        }
      ],
      "name": "PauserRemoved",
      "type": "event"
    },
    {
      "anonymous": false,
      "inputs": [
        {
          "indexed": true,
          "internalType": "address",
          "name": "user",
          "type": "address"
        }
      ],
      "name": "ProfileCreated",
      "type": "event"
    },
    {
      "inputs": [
        {
          "internalType": "address",
          "name": "_pauser",
          "type": "address"
        }
      ],
      "name": "addPauser",
      "outputs": [],
      "stateMutability": "nonpayable",
      "type": "function"
    },
    {
      "inputs": [
        {
          "internalType": "uint8",
          "name": "_zodiac",
          "type": "uint8"
        },
        {
          "internalType": "uint8",
          "name": "_element",
          "type": "uint8"
        },
        {
          "internalType": "uint8",
          "name": "_quality",
          "type": "uint8"
        }
      ],
      "name": "createProfile",
      "outputs": [],
      "stateMutability": "nonpayable",
      "type": "function"
    },
    {
      "inputs": [],
      "name": "decryptionRequestCounter",
      "outputs": [
        {
          "internalType": "uint256",
          "name": "",
          "type": "uint256"
        }
      ],
      "stateMutability": "view",
      "type": "function"
    },
    {
      "inputs": [
        {
          "internalType": "uint256",
          "name": "",
          "type": "uint256"
        }
      ],
      "name": "decryptionRequests",
      "outputs": [
        {
          "internalType": "uint256",
          "name": "requestId",
          "type": "uint256"
        },
        {
          "internalType": "address",
          "name": "requester",
          "type": "address"
        },
        {
          "internalType": "bytes32",
          "name": "matchId",
          "type": "bytes32"
        },
        {
          "internalType": "uint256",
          "name": "timestamp",
          "type": "uint256"
        },
        {
          "internalType": "bool",
          "name": "fulfilled",
          "type": "bool"
        },
        {
          "internalType": "uint256",
          "name": "kmsGeneration",
          "type": "uint256"
        }
      ],
      "stateMutability": "view",
      "type": "function"
    },
    {
      "inputs": [
        {
          "internalType": "address",
          "name": "_user1",
          "type": "address"
        },
        {
          "internalType": "address",
          "name": "_user2",
          "type": "address"
        }
      ],
      "name": "generateMatchId",
      "outputs": [
        {
          "internalType": "bytes32",
          "name": "",
          "type": "bytes32"
        }
      ],
      "stateMutability": "pure",
      "type": "function"
    },
    {
      "inputs": [
        {
          "internalType": "uint256",
          "name": "_requestId",
          "type": "uint256"
        }
      ],
      "name": "getDecryptionRequestInfo",
      "outputs": [
        {
          "internalType": "address",
          "name": "requester",
          "type": "address"
        },
        {
          "internalType": "bytes32",
          "name": "matchId",
          "type": "bytes32"
        },
        {
          "internalType": "uint256",
          "name": "timestamp",
          "type": "uint256"
        },
        {
          "internalType": "bool",
          "name": "fulfilled",
          "type": "bool"
        },
        {
          "internalType": "uint256",
          "name": "kmsGen",
          "type": "uint256"
        }
      ],
      "stateMutability": "view",
      "type": "function"
    },
    {
      "inputs": [
        {
          "internalType": "bytes32",
          "name": "_matchId",
          "type": "bytes32"
        }
      ],
      "name": "getMatchInfo",
      "outputs": [
        {
          "internalType": "address",
          "name": "user1",
          "type": "address"
        },
        {
          "internalType": "address",
          "name": "user2",
          "type": "address"
        },
        {
          "internalType": "bool",
          "name": "isRevealed",
          "type": "bool"
        },
        {
          "internalType": "uint8",
          "name": "publicScore",
          "type": "uint8"
        },
        {
          "internalType": "uint256",
          "name": "matchTime",
          "type": "uint256"
        }
      ],
      "stateMutability": "view",
      "type": "function"
    },
    {
      "inputs": [
        {
          "internalType": "uint256",
          "name": "_index",
          "type": "uint256"
        }
      ],
      "name": "getPauserAtIndex",
      "outputs": [
        {
          "internalType": "address",
          "name": "",
          "type": "address"
        }
      ],
      "stateMutability": "view",
      "type": "function"
    },
    {
      "inputs": [],
      "name": "getPauserCount",
      "outputs": [
        {
          "internalType": "uint256",
          "name": "",
          "type": "uint256"
        }
      ],
      "stateMutability": "view",
      "type": "function"
    },
    {
      "inputs": [
        {
          "internalType": "address",
          "name": "_user",
          "type": "address"
        }
      ],
      "name": "getUserProfileStatus",
      "outputs": [
        {
          "internalType": "bool",
          "name": "profileExists",
          "type": "bool"
        },
        {
          "internalType": "uint256",
          "name": "timestamp",
          "type": "uint256"
        }
      ],
      "stateMutability": "view",
      "type": "function"
    },
    {
      "inputs": [
        {
          "internalType": "address",
          "name": "_user",
          "type": "address"
        }
      ],
      "name": "getUserStats",
      "outputs": [
        {
          "internalType": "uint256",
          "name": "matchCount",
          "type": "uint256"
        }
      ],
      "stateMutability": "view",
      "type": "function"
    },
    {
      "inputs": [
        {
          "internalType": "uint8",
          "name": "_zodiac",
          "type": "uint8"
        }
      ],
      "name": "getZodiacInfo",
      "outputs": [
        {
          "internalType": "string",
          "name": "name",
          "type": "string"
        },
        {
          "internalType": "uint8",
          "name": "element",
          "type": "uint8"
        },
        {
          "internalType": "uint8",
          "name": "quality",
          "type": "uint8"
        }
      ],
      "stateMutability": "pure",
      "type": "function"
    },
    {
      "inputs": [],
      "name": "isContractPaused",
      "outputs": [
        {
          "internalType": "bool",
          "name": "",
          "type": "bool"
        }
      ],
      "stateMutability": "view",
      "type": "function"
    },
    {
      "inputs": [
        {
          "internalType": "bytes32",
          "name": "_matchId",
          "type": "bytes32"
        }
      ],
      "name": "isMatchValid",
      "outputs": [
        {
          "internalType": "bool",
          "name": "",
          "type": "bool"
        }
      ],
      "stateMutability": "view",
      "type": "function"
    },
    {
      "inputs": [],
      "name": "isPaused",
      "outputs": [
        {
          "internalType": "bool",
          "name": "",
          "type": "bool"
        }
      ],
      "stateMutability": "view",
      "type": "function"
    },
    {
      "inputs": [
        {
          "internalType": "address",
          "name": "_address",
          "type": "address"
        }
      ],
      "name": "isPauser",
      "outputs": [
        {
          "internalType": "bool",
          "name": "",
          "type": "bool"
        }
      ],
      "stateMutability": "view",
      "type": "function"
    },
    {
      "inputs": [
        {
          "internalType": "address",
          "name": "",
          "type": "address"
        }
      ],
      "name": "isPauserAddress",
      "outputs": [
        {
          "internalType": "bool",
          "name": "",
          "type": "bool"
        }
      ],
      "stateMutability": "view",
      "type": "function"
    },
    {
      "inputs": [],
      "name": "isPublicDecryptAllowed",
      "outputs": [
        {
          "internalType": "bool",
          "name": "",
          "type": "bool"
        }
      ],
      "stateMutability": "view",
      "type": "function"
    },
    {
      "inputs": [],
      "name": "kmsGeneration",
      "outputs": [
        {
          "internalType": "uint256",
          "name": "",
          "type": "uint256"
        }
      ],
      "stateMutability": "view",
      "type": "function"
    },
    {
      "inputs": [
        {
          "internalType": "bytes32",
          "name": "",
          "type": "bytes32"
        }
      ],
      "name": "matches",
      "outputs": [
        {
          "internalType": "address",
          "name": "user1",
          "type": "address"
        },
        {
          "internalType": "address",
          "name": "user2",
          "type": "address"
        },
        {
          "internalType": "euint8",
          "name": "compatibilityScore",
          "type": "bytes32"
        },
        {
          "internalType": "bool",
          "name": "isRevealed",
          "type": "bool"
        },
        {
          "internalType": "uint8",
          "name": "publicScore",
          "type": "uint8"
        },
        {
          "internalType": "uint256",
          "name": "matchTime",
          "type": "uint256"
        }
      ],
      "stateMutability": "view",
      "type": "function"
    },
    {
      "inputs": [],
      "name": "owner",
      "outputs": [
        {
          "internalType": "address",
          "name": "",
          "type": "address"
        }
      ],
      "stateMutability": "view",
      "type": "function"
    },
    {
      "inputs": [],
      "name": "pause",
      "outputs": [],
      "stateMutability": "nonpayable",
      "type": "function"
    },
    {
      "inputs": [
        {
          "internalType": "uint256",
          "name": "",
          "type": "uint256"
        }
      ],
      "name": "pauserAddresses",
      "outputs": [
        {
          "internalType": "address",
          "name": "",
          "type": "address"
        }
      ],
      "stateMutability": "view",
      "type": "function"
    },
    {
      "inputs": [
        {
          "internalType": "bytes32",
          "name": "matchId",
          "type": "bytes32"
        },
        {
          "internalType": "uint8",
          "name": "decryptedValue",
          "type": "uint8"
        }
      ],
      "name": "processScoreReveal",
      "outputs": [],
      "stateMutability": "nonpayable",
      "type": "function"
    },
    {
      "inputs": [],
      "name": "protocolId",
      "outputs": [
        {
          "internalType": "uint256",
          "name": "",
          "type": "uint256"
        }
      ],
      "stateMutability": "pure",
      "type": "function"
    },
    {
      "inputs": [
        {
          "internalType": "address",
          "name": "_pauser",
          "type": "address"
        }
      ],
      "name": "removePauser",
      "outputs": [],
      "stateMutability": "nonpayable",
      "type": "function"
    },
    {
      "inputs": [
        {
          "internalType": "address",
          "name": "_partner",
          "type": "address"
        }
      ],
      "name": "requestCompatibilityMatch",
      "outputs": [],
      "stateMutability": "nonpayable",
      "type": "function"
    },
    {
      "inputs": [
        {
          "internalType": "bytes32",
          "name": "_matchId",
          "type": "bytes32"
        }
      ],
      "name": "revealCompatibilityScore",
      "outputs": [
        {
          "internalType": "uint256",
          "name": "",
          "type": "uint256"
        }
      ],
      "stateMutability": "nonpayable",
      "type": "function"
    },
    {
      "inputs": [
        {
          "internalType": "uint256",
          "name": "_requestId",
          "type": "uint256"
        },
        {
          "internalType": "bytes",
          "name": "_encryptedShare",
          "type": "bytes"
        },
        {
          "internalType": "bytes",
          "name": "_signature",
          "type": "bytes"
        }
      ],
      "name": "submitDecryptionResponse",
      "outputs": [],
      "stateMutability": "nonpayable",
      "type": "function"
    },
    {
      "inputs": [],
      "name": "totalMatches",
      "outputs": [
        {
          "internalType": "uint256",
          "name": "",
          "type": "uint256"
        }
      ],
      "stateMutability": "view",
      "type": "function"
    },
    {
      "inputs": [],
      "name": "unpause",
      "outputs": [],
      "stateMutability": "nonpayable",
      "type": "function"
    },
    {
      "inputs": [
        {
          "internalType": "uint256",
          "name": "_newGeneration",
          "type": "uint256"
        }
      ],
      "name": "updateKmsGeneration",
      "outputs": [],
      "stateMutability": "nonpayable",
      "type": "function"
    },
    {
      "inputs": [
        {
          "internalType": "uint8",
          "name": "_zodiac",
          "type": "uint8"
        },
        {
          "internalType": "uint8",
          "name": "_element",
          "type": "uint8"
        },
        {
          "internalType": "uint8",
          "name": "_quality",
          "type": "uint8"
        }
      ],
      "name": "updateProfile",
      "outputs": [],
      "stateMutability": "nonpayable",
      "type": "function"
    },
    {
      "inputs": [
        {
          "internalType": "address",
          "name": "",
          "type": "address"
        }
      ],
      "name": "userMatchCount",
      "outputs": [
        {
          "internalType": "uint256",
          "name": "",
          "type": "uint256"
        }
      ],
      "stateMutability": "view",
      "type": "function"
    },
    {
      "inputs": [
        {
          "internalType": "address",
          "name": "",
          "type": "address"
        }
      ],
      "name": "userProfiles",
      "outputs": [
        {
          "internalType": "euint8",
          "name": "encryptedZodiac",
          "type": "bytes32"
        },
        {
          "internalType": "euint8",
          "name": "encryptedElement",
          "type": "bytes32"
        },
        {
          "internalType": "euint8",
          "name": "encryptedQuality",
          "type": "bytes32"
        },
        {
          "internalType": "bool",
          "name": "hasProfile",
          "type": "bool"
        },
        {
          "internalType": "uint256",
          "name": "timestamp",
          "type": "uint256"
        }
      ],
      "stateMutability": "view",
      "type": "function"
    }
  ],
  "bytecode": "0x608060405234801562000010575f80fd5b5060405162006f5b38038062006f5b833981810160405281019062000036919062000883565b620000566200004a620003ae60201b60201c565b6200048660201b60201c565b6200007267b88cc75a4b5ea30c60c01b6200049a60201b60201c565b6200008e67508ca2eda992c4e760c01b6200049a60201b60201c565b335f806101000a81548173ffffffffffffffffffffffffffffffffffffffff021916908373ffffffffffffffffffffffffffffffffffffffff160217905550620000e967948231cf2a4986b960c01b6200049a60201b60201c565b5f6001819055506200010c670a47d83f9116af6760c01b6200049a60201b60201c565b806002819055506200012f67778769271ec04c7960c01b6200049a60201b60201c565b5f60045f6101000a81548160ff02191690831515021790555062000164675aecee7c9279f06760c01b6200049a60201b60201c565b5f600681905550620001876714a6c894e8aab5ff60c01b6200049a60201b60201c565b620001a36708cf05718b84177060c01b6200049a60201b60201c565b5f5b8251811015620003a557620001cb678afd83d03c94b57060c01b6200049a60201b60201c565b620001e767281bde445f8107d660c01b6200049a60201b60201c565b6003838281518110620001ff57620001fe620008e7565b5b6020026020010151908060018154018082558091505060019003905f5260205f20015f9091909190916101000a81548173ffffffffffffffffffffffffffffffffffffffff021916908373ffffffffffffffffffffffffffffffffffffffff1602179055506200028067a20e1af3bab7569860c01b6200049a60201b60201c565b600160055f8584815181106200029b576200029a620008e7565b5b602002602001015173ffffffffffffffffffffffffffffffffffffffff1673ffffffffffffffffffffffffffffffffffffffff1681526020019081526020015f205f6101000a81548160ff0219169083151502179055506200030e6770926287a3c610c160c01b6200049a60201b60201c565b6200032a67d1a08816c07f60a160c01b6200049a60201b60201c565b82818151811062000340576200033f620008e7565b5b602002602001015173ffffffffffffffffffffffffffffffffffffffff167f0ad15ebec79c7d7b2785c7b5d8a7df78be193da0f65dff2d7c539a0992d53e37426040516200038f919062000925565b60405180910390a28080600101915050620001a5565b50505062000940565b620003b8620005f1565b604051806080016040528073687820221192c5b662b25367f70076a37bc79b6c73ffffffffffffffffffffffffffffffffffffffff16815260200173848b0066793bcc60346da1f49049357399b8d59573ffffffffffffffffffffffffffffffffffffffff16815260200173a02cda4ca3a71d7c46997716f4283aa851c2881273ffffffffffffffffffffffffffffffffffffffff168152602001731364cbbf2cdf5032c47d8226a6f6fbd2afcdacac73ffffffffffffffffffffffffffffffffffffffff16815250905090565b62000497816200049d60201b60201c565b50565b50565b5f620004ae620005ca60201b60201c565b9050815f0151815f015f6101000a81548173ffffffffffffffffffffffffffffffffffffffff021916908373ffffffffffffffffffffffffffffffffffffffff1602179055508160200151816001015f6101000a81548173ffffffffffffffffffffffffffffffffffffffff021916908373ffffffffffffffffffffffffffffffffffffffff1602179055508160400151816002015f6101000a81548173ffffffffffffffffffffffffffffffffffffffff021916908373ffffffffffffffffffffffffffffffffffffffff1602179055508160600151816003015f6101000a81548173ffffffffffffffffffffffffffffffffffffffff021916908373ffffffffffffffffffffffffffffffffffffffff1602179055505050565b5f7f9e7b61f58c47dc699ac88507c4f5bb9f121c03808c5676a8078fe583e4649700905090565b60405180608001604052805f73ffffffffffffffffffffffffffffffffffffffff1681526020015f73ffffffffffffffffffffffffffffffffffffffff1681526020015f73ffffffffffffffffffffffffffffffffffffffff1681526020015f73ffffffffffffffffffffffffffffffffffffffff1681525090565b5f604051905090565b5f80fd5b5f80fd5b5f80fd5b5f601f19601f8301169050919050565b7f4e487b71000000000000000000000000000000000000000000000000000000005f52604160045260245ffd5b620006ca8262000682565b810181811067ffffffffffffffff82111715620006ec57620006eb62000692565b5b80604052505050565b5f620007006200066d565b90506200070e8282620006bf565b919050565b5f67ffffffffffffffff82111562000730576200072f62000692565b5b602082029050602081019050919050565b5f80fd5b5f73ffffffffffffffffffffffffffffffffffffffff82169050919050565b5f620007708262000745565b9050919050565b620007828162000764565b81146200078d575f80fd5b50565b5f81519050620007a08162000777565b92915050565b5f620007bc620007b68462000713565b620006f5565b90508083825260208201905060208402830185811115620007e257620007e162000741565b5b835b818110156200080f5780620007fa888262000790565b845260208401935050602081019050620007e4565b5050509392505050565b5f82601f83011262000830576200082f6200067e565b5b815162000842848260208601620007a6565b91505092915050565b5f819050919050565b6200085f816200084b565b81146200086a575f80fd5b50565b5f815190506200087d8162000854565b92915050565b5f80604083850312156200089c576200089b62000676565b5b5f83015167ffffffffffffffff811115620008bc57620008bb6200067a565b5b620008ca8582860162000819565b9250506020620008dd858286016200086d565b9150509250929050565b7f4e487b71000000000000000000000000000000000000000000000000000000005f52603260045260245ffd5b6200091f816200084b565b82525050565b5f6020820190506200093a5f83018462000914565b92915050565b61660d806200094e5f395ff3fe608060405234801561000f575f80fd5b506004361061020f575f3560e01c80638456cb5911610123578063c84cd8c0116100ab578063dbc9023e1161007a578063dbc9023e14610676578063dcaee502146106a6578063e513af60146106d6578063f424939f146106f4578063f4ab2928146107105761020f565b8063c84cd8c0146105d7578063d3722d01146105f3578063d833a51a14610628578063da1f12ab146106585761020f565b80639fe9ada3116100f25780639fe9ada314610516578063b187bd261461054b578063b2bef0b014610569578063bad0afaf14610585578063c801d758146105b95761020f565b80638456cb59146104b45780638ab92f48146104be5780638da5cb5b146104da57806391136b65146104f85761020f565b80634efe4f6a116101a65780636d8d2c6d116101755780636d8d2c6d146104125780637499888f146104305780637a501d741461044c5780637adfe96e1461046857806382dc1ec4146104985761020f565b80634efe4f6a146103605780636b2c0f55146103925780636b8a4928146103ae5780636b9e9680146103e25761020f565b8063332d56d7116101e2578063332d56d7146102c25780633f4ba83a146102f657806346fbf68e146103005780634e43603a146103305761020f565b8063026fef7f146102135780630821d0ef146102435780632a5b1451146102735780632c2c4f9c14610291575b5f80fd5b61022d6004803603810190610228919061537b565b61072e565b60405161023a91906153e5565b60405180910390f35b61025d60048036038101906102589190615428565b610769565b60405161026a9190615462565b60405180910390f35b61027b61077e565b6040516102889190615462565b60405180910390f35b6102ab60048036038101906102a69190615428565b610784565b6040516102b9929190615495565b60405180910390f35b6102dc60048036038101906102d79190615428565b61084a565b6040516102ed9594939291906154e5565b60405180910390f35b6102fe610888565b005b61031a60048036038101906103159190615428565b610b0c565b6040516103279190615536565b60405180910390f35b61034a60048036038101906103459190615428565b610b9a565b6040516103579190615462565b60405180910390f35b61037a60048036038101906103759190615585565b610c1c565b60405161038993929190615649565b60405180910390f35b6103ac60048036038101906103a79190615428565b61119f565b005b6103c860048036038101906103c391906156af565b6116dc565b6040516103d99594939291906156da565b60405180910390f35b6103fc60048036038101906103f7919061572b565b6117dc565b6040516104099190615778565b60405180910390f35b61041a611927565b6040516104279190615462565b60405180910390f35b61044a600480360381019061044591906157f2565b61192d565b005b61046660048036038101906104619190615883565b611a6c565b005b610482600480360381019061047d919061537b565b61209c565b60405161048f91906153e5565b60405180910390f35b6104b260048036038101906104ad9190615428565b6121b3565b005b6104bc6125f5565b005b6104d860048036038101906104d39190615428565b612876565b005b6104e2613172565b6040516104ef91906153e5565b60405180910390f35b610500613195565b60405161050d9190615462565b60405180910390f35b610530600480360381019061052b91906156af565b6131dd565b604051610542969594939291906158d3565b60405180910390f35b61055361326c565b6040516105609190615536565b60405180910390f35b610583600480360381019061057e9190615883565b61327e565b005b61059f600480360381019061059a919061537b565b613921565b6040516105b0959493929190615932565b60405180910390f35b6105c16139f6565b6040516105ce9190615536565b60405180910390f35b6105f160048036038101906105ec919061537b565b613a48565b005b61060d6004803603810190610608919061537b565b613c36565b60405161061f96959493929190615983565b60405180910390f35b610642600480360381019061063d91906156af565b613c99565b60405161064f9190615462565b60405180910390f35b6106606142e2565b60405161066d9190615462565b60405180910390f35b610690600480360381019061068b91906156af565b6142f0565b60405161069d9190615536565b60405180910390f35b6106c060048036038101906106bb9190615428565b614396565b6040516106cd9190615536565b60405180910390f35b6106de6143b3565b6040516106eb9190615462565b60405180910390f35b61070e600480360381019061070991906159e2565b6143b9565b005b61071861474c565b6040516107259190615536565b60405180910390f35b6003818154811061073d575f80fd5b905f5260205f20015f915054906101000a900473ffffffffffffffffffffffffffffffffffffffff1681565b6009602052805f5260405f205f915090505481565b60015481565b5f8061079a67f8ac02f9c71f18c760c01b61479d565b6107ae679204f43c7ac57c7160c01b61479d565b6107c267bc257ef136ba5a4660c01b61479d565b5f60075f8573ffffffffffffffffffffffffffffffffffffffff1673ffffffffffffffffffffffffffffffffffffffff1681526020019081526020015f209050610816675d5243bdadcb020860c01b61479d565b61082a67d9a28e031ddd9abe60c01b61479d565b806003015f9054906101000a900460ff1681600401549250925050915091565b6007602052805f5260405f205f91509050805f015490806001015490806002015490806003015f9054906101000a900460ff16908060040154905085565b61089c67b7daa8a1638c65fb60c01b61479d565b6108b067e39eb8209598cbe560c01b61479d565b6108c467c072a37d1027566560c01b61479d565b6108d867aba705b490373ef160c01b61479d565b6108ec67df7855ffb7ad924160c01b61479d565b5f8054906101000a900473ffffffffffffffffffffffffffffffffffffffff1673ffffffffffffffffffffffffffffffffffffffff163373ffffffffffffffffffffffffffffffffffffffff1614610979576040517f08c379a000000000000000000000000000000000000000000000000000000000815260040161097090615a6a565b60405180910390fd5b61098d674eae9bcd91e193cc60c01b61479d565b6109a167f519efce22b8db4860c01b61479d565b6109b56776e4f9d7b53fb5c760c01b61479d565b6109c967ff664474cf3cc37f60c01b61479d565b6109dd6772925811336e6a9260c01b61479d565b6109f167cb71ed23ea2ec78f60c01b61479d565b610a0567fff95646cfce40a460c01b61479d565b60045f9054906101000a900460ff16610a53576040517f08c379a0000000000000000000000000000000000000000000000000000000008152600401610a4a90615ad2565b60405180910390fd5b610a67676b77ca9fb7e70d8460c01b61479d565b610a7b6791bf0036f888d8c960c01b61479d565b5f60045f6101000a81548160ff021916908315150217905550610aa867134d452219bc9f5c60c01b61479d565b610abc677e89db63dc57805460c01b61479d565b3373ffffffffffffffffffffffffffffffffffffffff167f107553d8191d85b405879cf752997865edd48d94e20bda4dd27223c94b31a7cc42604051610b029190615462565b60405180910390a2565b5f610b2167577fd731e8498ab060c01b61479d565b610b356705b16b0af8d09c5e60c01b61479d565b610b4967955fc13368babfad60c01b61479d565b60055f8373ffffffffffffffffffffffffffffffffffffffff1673ffffffffffffffffffffffffffffffffffffffff1681526020019081526020015f205f9054906101000a900460ff169050919050565b5f610baf671d872835ca8e816760c01b61479d565b610bc36719ac7c8e0c7e67e660c01b61479d565b610bd7675f4c4e0c5f616cfa60c01b61479d565b60095f8373ffffffffffffffffffffffffffffffffffffffff1673ffffffffffffffffffffffffffffffffffffffff1681526020019081526020015f20549050919050565b60605f80610c34678935e914ca1481c860c01b61479d565b610c486765edf4bb746904b960c01b61479d565b610c5c6713ae75f9680e649560c01b61479d565b610c706758ec558650ab08b260c01b61479d565b600c8460ff1610610cb6576040517f08c379a0000000000000000000000000000000000000000000000000000000008152600401610cad90615b3a565b60405180910390fd5b610cca67346d7734204ca7cd60c01b61479d565b610cde6792521a4e33098c5160c01b61479d565b610cf2670c6786d2babe6cd860c01b61479d565b5f6040518061018001604052806040518060400160405280600581526020017f417269657300000000000000000000000000000000000000000000000000000081525081526020016040518060400160405280600681526020017f546175727573000000000000000000000000000000000000000000000000000081525081526020016040518060400160405280600681526020017f47656d696e69000000000000000000000000000000000000000000000000000081525081526020016040518060400160405280600681526020017f43616e636572000000000000000000000000000000000000000000000000000081525081526020016040518060400160405280600381526020017f4c656f000000000000000000000000000000000000000000000000000000000081525081526020016040518060400160405280600581526020017f566972676f00000000000000000000000000000000000000000000000000000081525081526020016040518060400160405280600581526020017f4c6962726100000000000000000000000000000000000000000000000000000081525081526020016040518060400160405280600781526020017f53636f7270696f0000000000000000000000000000000000000000000000000081525081526020016040518060400160405280600b81526020017f536167697474617269757300000000000000000000000000000000000000000081525081526020016040518060400160405280600981526020017f4361707269636f726e000000000000000000000000000000000000000000000081525081526020016040518060400160405280600881526020017f417175617269757300000000000000000000000000000000000000000000000081525081526020016040518060400160405280600681526020017f50697363657300000000000000000000000000000000000000000000000000008152508152509050610fd767d590461d8284eeda60c01b61479d565b610feb670b2007e37b52baec60c01b61479d565b5f6040518061018001604052805f60ff168152602001600160ff168152602001600260ff168152602001600360ff1681526020015f60ff168152602001600160ff168152602001600260ff168152602001600360ff1681526020015f60ff168152602001600160ff168152602001600260ff168152602001600360ff1681525090506110816796c70cdb3bf15f0760c01b61479d565b6110956740ea826225fdcff160c01b61479d565b5f6040518061018001604052805f60ff168152602001600160ff168152602001600260ff1681526020015f60ff168152602001600160ff168152602001600260ff1681526020015f60ff168152602001600160ff168152602001600260ff1681526020015f60ff168152602001600160ff168152602001600260ff16815250905061112a67d65e22d222a2fb1160c01b61479d565b61113e674304d78a6d51781260c01b61479d565b828760ff16600c811061115457611153615b58565b5b6020020151828860ff16600c811061116f5761116e615b58565b5b6020020151828960ff16600c811061118a57611189615b58565b5b60200201519550955095505050509193909250565b6111b367c14bcfdd7d4ed41560c01b61479d565b6111c767e39eb8209598cbe560c01b61479d565b6111db67c072a37d1027566560c01b61479d565b6111ef67aba705b490373ef160c01b61479d565b61120367df7855ffb7ad924160c01b61479d565b5f8054906101000a900473ffffffffffffffffffffffffffffffffffffffff1673ffffffffffffffffffffffffffffffffffffffff163373ffffffffffffffffffffffffffffffffffffffff1614611290576040517f08c379a000000000000000000000000000000000000000000000000000000000815260040161128790615a6a565b60405180910390fd5b6112a4674eae9bcd91e193cc60c01b61479d565b6112b867f519efce22b8db4860c01b61479d565b6112cc670b8612218e34459860c01b61479d565b6112e0676b0f9c6c0c8b068b60c01b61479d565b6112f467f4b449548f921bc760c01b61479d565b611308672d6d173c419571a460c01b61479d565b61131c67b7eb9257b631e56660c01b61479d565b60055f8273ffffffffffffffffffffffffffffffffffffffff1673ffffffffffffffffffffffffffffffffffffffff1681526020019081526020015f205f9054906101000a900460ff166113a5576040517f08c379a000000000000000000000000000000000000000000000000000000000815260040161139c90615bcf565b60405180910390fd5b6113b96713f427bf233b89a660c01b61479d565b6113cd671bc16b92debf9d4f60c01b61479d565b5f60055f8373ffffffffffffffffffffffffffffffffffffffff1673ffffffffffffffffffffffffffffffffffffffff1681526020019081526020015f205f6101000a81548160ff0219169083151502179055506114356764a9583f0ee820c060c01b61479d565b61144967cdd319a66ee7373e60c01b61479d565b5f5b6003805490508110156116625761146c6711e337eb049d946660c01b61479d565b6114806749206cabf841c54560c01b61479d565b8173ffffffffffffffffffffffffffffffffffffffff16600382815481106114ab576114aa615b58565b5b905f5260205f20015f9054906101000a900473ffffffffffffffffffffffffffffffffffffffff1673ffffffffffffffffffffffffffffffffffffffff16036116415761150267c73cc38f7ad65f7860c01b61479d565b6115166730af9c463a68add360c01b61479d565b6003600160038054905061152a9190615c1a565b8154811061153b5761153a615b58565b5b905f5260205f20015f9054906101000a900473ffffffffffffffffffffffffffffffffffffffff166003828154811061157757611576615b58565b5b905f5260205f20015f6101000a81548173ffffffffffffffffffffffffffffffffffffffff021916908373ffffffffffffffffffffffffffffffffffffffff1602179055506115d067cac62549a2a3249360c01b61479d565b6115e46778d56bb6ade4849f60c01b61479d565b60038054806115f6576115f5615c4d565b5b600190038181905f5260205f20015f6101000a81549073ffffffffffffffffffffffffffffffffffffffff0219169055905561163c67f66a4504f0fa536e60c01b61479d565b611662565b61165567202ea594a448ee7560c01b61479d565b808060010191505061144b565b5061167767be25b29c5463253d60c01b61479d565b61168b6748428c8ef0afe8ef60c01b61479d565b8073ffffffffffffffffffffffffffffffffffffffff167f09d663ecc0eac31928bc933e50d7b947f6c93e150383c8c0b317c437a0f0a12d426040516116d19190615462565b60405180910390a250565b5f805f805f6116f5678c18db87c6d6286560c01b61479d565b61170967243dc88159175c9060c01b61479d565b61171d67cb6afa525377cdeb60c01b61479d565b5f60085f8881526020019081526020015f209050611745672ced3e463e0632b260c01b61479d565b6117596753cf36de493072bb60c01b61479d565b805f015f9054906101000a900473ffffffffffffffffffffffffffffffffffffffff16816001015f9054906101000a900473ffffffffffffffffffffffffffffffffffffffff16826003015f9054906101000a900460ff168360030160019054906101000a900460ff168460040154955095509550955095505091939590929450565b5f6117f167c03e15d6491fd18160c01b61479d565b61180567728deb72baca256c60c01b61479d565b611819671a595711981f9c3860c01b61479d565b8173ffffffffffffffffffffffffffffffffffffffff168373ffffffffffffffffffffffffffffffffffffffff1610156118b95761186167c5529ec7041b9ad960c01b61479d565b61187567a3ef5e6e5844ab4860c01b61479d565b61188967b4fa6330caff731b60c01b61479d565b828260405160200161189c929190615cbf565b604051602081830303815290604052805190602001209050611921565b6118cd6769ec0a337087a42660c01b61479d565b6118e1676f9e5f3474d38ad860c01b61479d565b6118f56707c96ee455e7945a60c01b61479d565b8183604051602001611908929190615cbf565b6040516020818303038152906040528051906020012090505b92915050565b60065481565b61194167a172d8a72826114960c01b61479d565b6119556722126ff567c8676560c01b61479d565b6119696711226cf48521b7b760c01b61479d565b61197d6723d2d59cb18cc85360c01b61479d565b84600a5f8781526020019081526020015f205f0154146119d2576040517f08c379a00000000000000000000000000000000000000000000000000000000081526004016119c990615d34565b60405180910390fd5b6119e667208a64fe20890e0760c01b61479d565b6119fa679bd6a11f32482f4c60c01b61479d565b611a0e679da7b2e31aef3f4360c01b61479d565b3373ffffffffffffffffffffffffffffffffffffffff16857f7c928c5fcc307a0be08cab90a20b1e1233adb2226579e4118fb62ee51801318f8686868642604051611a5d959493929190615d9c565b60405180910390a35050505050565b611a8067f70f38a8de6929cb60c01b61479d565b611a9467699d80b29cad918560c01b61479d565b611aa867ac91f824a396055960c01b61479d565b611abc67bc4315df8395b7b160c01b61479d565b611ad067fb1366ade071028d60c01b61479d565b60045f9054906101000a900460ff1615611b1f576040517f08c379a0000000000000000000000000000000000000000000000000000000008152600401611b1690615e2d565b60405180910390fd5b611b3367272c4da9e338ba9460c01b61479d565b611b47676b133ff730a6e97760c01b61479d565b611b5b67a7d2421b4810910d60c01b61479d565b611b6f6719229f9991ff2a4060c01b61479d565b33611b84679df426f0703e124d60c01b61479d565b611b9867d55e77b91efaec1a60c01b61479d565b611bac6734da47596c81624260c01b61479d565b611bc0671f9eb7828e6f586c60c01b61479d565b60075f8273ffffffffffffffffffffffffffffffffffffffff1673ffffffffffffffffffffffffffffffffffffffff1681526020019081526020015f206003015f9054906101000a900460ff16611c4c576040517f08c379a0000000000000000000000000000000000000000000000000000000008152600401611c4390615e95565b60405180910390fd5b611c6067cf8f43327ea0623b60c01b61479d565b611c7467852f74313fc8a6e660c01b61479d565b611c886709445db495934c5b60c01b61479d565b611c9c67b9106a32c466588460c01b61479d565b611cb06724e4a5a68f7929f960c01b61479d565b611cc46792e3ee890ff21fd360c01b61479d565b611cd8671dcc198daa8675c460c01b61479d565b600c8460ff1610611d1e576040517f08c379a0000000000000000000000000000000000000000000000000000000008152600401611d1590615b3a565b60405180910390fd5b611d32675ad976fe71bd7b0560c01b61479d565b611d4667991bf2432a71b87d60c01b61479d565b611d5a6736eac21a2600700160c01b61479d565b611d6e67ef3c64ace749c4a260c01b61479d565b60048360ff1610611db4576040517f08c379a0000000000000000000000000000000000000000000000000000000008152600401611dab90615efd565b60405180910390fd5b611dc86770e09a42e8f0e2cf60c01b61479d565b611ddc67bfd683cb47f81e6160c01b61479d565b611df0675a0b31f2efc26cd860c01b61479d565b611e046763c9243ce751fce660c01b61479d565b60038260ff1610611e4a576040517f08c379a0000000000000000000000000000000000000000000000000000000008152600401611e4190615f65565b60405180910390fd5b611e5e67627569cebda704fb60c01b61479d565b611e726783253da4f725da4f60c01b61479d565b611e8667cb24dc119858f80e60c01b61479d565b5f60075f3373ffffffffffffffffffffffffffffffffffffffff1673ffffffffffffffffffffffffffffffffffffffff1681526020019081526020015f209050611eda67f535b222c46c1ca460c01b61479d565b611ee3856147a0565b815f0181905550611efe67dc337b7d0febf8dc60c01b61479d565b611f07846147a0565b8160010181905550611f2367f0c0680a114bfeff60c01b61479d565b611f2c836147a0565b8160020181905550611f486748f076b9b4d4e3a260c01b61479d565b428160040181905550611f6567a7ae221f5464031860c01b61479d565b611f79678cd357acc6623ce760c01b61479d565b611f85815f01546147b6565b50611f9a67bd8c4eb953a6016660c01b61479d565b611fae6783a8d8092563b6ff60c01b61479d565b611fbb81600101546147b6565b50611fcf6651a47f37704bc960c01b61479d565b611fe367e4c21b87980f3fe960c01b61479d565b611ff081600201546147b6565b506120056778343069a23a53ff60c01b61479d565b61201967f353dab523fe6f8d60c01b61479d565b612026815f0154336147c9565b5061203b671ea2afc1388b7f0960c01b61479d565b61204f67a083f1932620d97b60c01b61479d565b61205d8160010154336147c9565b50612072674c5890661ea9b2a160c01b61479d565b61208667d1a56f898055b32f60c01b61479d565b6120948160020154336147c9565b505050505050565b5f6120b167bbd041edb642af0960c01b61479d565b6120c567de8f8da1e1c9e24d60c01b61479d565b6120d967404e92380955d74c60c01b61479d565b6120ed67593817b3e345516560c01b61479d565b6003805490508210612134576040517f08c379a000000000000000000000000000000000000000000000000000000000815260040161212b90615fcd565b60405180910390fd5b612148675048a90aa979a9bf60c01b61479d565b61215c67693d91460891995560c01b61479d565b61217067ecf2a8390c648e3960c01b61479d565b6003828154811061218457612183615b58565b5b905f5260205f20015f9054906101000a900473ffffffffffffffffffffffffffffffffffffffff169050919050565b6121c7677ba8f9192fdfe37060c01b61479d565b6121db67e39eb8209598cbe560c01b61479d565b6121ef67c072a37d1027566560c01b61479d565b61220367aba705b490373ef160c01b61479d565b61221767df7855ffb7ad924160c01b61479d565b5f8054906101000a900473ffffffffffffffffffffffffffffffffffffffff1673ffffffffffffffffffffffffffffffffffffffff163373ffffffffffffffffffffffffffffffffffffffff16146122a4576040517f08c379a000000000000000000000000000000000000000000000000000000000815260040161229b90615a6a565b60405180910390fd5b6122b8674eae9bcd91e193cc60c01b61479d565b6122cc67f519efce22b8db4860c01b61479d565b6122e0672e1bc0e30f8e287660c01b61479d565b6122f4679c7a10c5431ea4e760c01b61479d565b61230766152c5af214feee60c01b61479d565b61231b67efd9427f2a3d578460c01b61479d565b61232f6747ebadb4f078fd6a60c01b61479d565b5f73ffffffffffffffffffffffffffffffffffffffff168173ffffffffffffffffffffffffffffffffffffffff160361239d576040517f08c379a000000000000000000000000000000000000000000000000000000000815260040161239490616035565b60405180910390fd5b6123b1676b66f7cfd5613d3060c01b61479d565b6123c56773daeb788921a58360c01b61479d565b6123d967b7caf9b69346c33160c01b61479d565b6123ed6775556fcc0f2dd55a60c01b61479d565b60055f8273ffffffffffffffffffffffffffffffffffffffff1673ffffffffffffffffffffffffffffffffffffffff1681526020019081526020015f205f9054906101000a900460ff1615612477576040517f08c379a000000000000000000000000000000000000000000000000000000000815260040161246e9061609d565b60405180910390fd5b61248b67d4ca261232a422f860c01b61479d565b61249f6781895cc74407855660c01b61479d565b6124b36722c3385715b26e8960c01b61479d565b600381908060018154018082558091505060019003905f5260205f20015f9091909190916101000a81548173ffffffffffffffffffffffffffffffffffffffff021916908373ffffffffffffffffffffffffffffffffffffffff16021790555061252767d79564362534279760c01b61479d565b600160055f8373ffffffffffffffffffffffffffffffffffffffff1673ffffffffffffffffffffffffffffffffffffffff1681526020019081526020015f205f6101000a81548160ff0219169083151502179055506125906744da25224cc286f060c01b61479d565b6125a467f7ec1a2a975df6b060c01b61479d565b8073ffffffffffffffffffffffffffffffffffffffff167f0ad15ebec79c7d7b2785c7b5d8a7df78be193da0f65dff2d7c539a0992d53e37426040516125ea9190615462565b60405180910390a250565b612609672a9887e3da760f4560c01b61479d565b61261d677cc58032541210e260c01b61479d565b61263167fa800cd1a3216c3d60c01b61479d565b6126456709139f63beaba5c460c01b61479d565b61265967ef80de28248f240a60c01b61479d565b60055f3373ffffffffffffffffffffffffffffffffffffffff1673ffffffffffffffffffffffffffffffffffffffff1681526020019081526020015f205f9054906101000a900460ff166126e2576040517f08c379a00000000000000000000000000000000000000000000000000000000081526004016126d990615bcf565b60405180910390fd5b6126f667f3a3777c3b7cdef260c01b61479d565b61270a67c1dbb87174b3085860c01b61479d565b61271e6799710e0a4024f9b160c01b61479d565b6127326791f18d75e553512160c01b61479d565b6127466715040641e3e3ef4260c01b61479d565b61275a67eca4fa4e151fb5b060c01b61479d565b61276e676a0bf426a529776a60c01b61479d565b60045f9054906101000a900460ff16156127bd576040517f08c379a00000000000000000000000000000000000000000000000000000000081526004016127b490616105565b60405180910390fd5b6127d066ae0fe022dd431d60c01b61479d565b6127e4672f00455a6294d48b60c01b61479d565b600160045f6101000a81548160ff02191690831515021790555061281267737465403c4d8c2660c01b61479d565b612826672d81b02ee290d82f60c01b61479d565b3373ffffffffffffffffffffffffffffffffffffffff167f80170b5fcdd2bf1e0660ef4b8851f86685f64d41b1a19de1471947ece8725aac4260405161286c9190615462565b60405180910390a2565b61288a67fa6df91a116099fe60c01b61479d565b61289e67699d80b29cad918560c01b61479d565b6128b267ac91f824a396055960c01b61479d565b6128c667bc4315df8395b7b160c01b61479d565b6128da67fb1366ade071028d60c01b61479d565b60045f9054906101000a900460ff1615612929576040517f08c379a000000000000000000000000000000000000000000000000000000000815260040161292090615e2d565b60405180910390fd5b61293d67272c4da9e338ba9460c01b61479d565b612951676b133ff730a6e97760c01b61479d565b6129656745ce2ab8520e4ce360c01b61479d565b612979676f0325ed520b115f60c01b61479d565b3361298e679df426f0703e124d60c01b61479d565b6129a267d55e77b91efaec1a60c01b61479d565b6129b66734da47596c81624260c01b61479d565b6129ca671f9eb7828e6f586c60c01b61479d565b60075f8273ffffffffffffffffffffffffffffffffffffffff1673ffffffffffffffffffffffffffffffffffffffff1681526020019081526020015f206003015f9054906101000a900460ff16612a56576040517f08c379a0000000000000000000000000000000000000000000000000000000008152600401612a4d90615e95565b60405180910390fd5b612a6a67cf8f43327ea0623b60c01b61479d565b612a7e67852f74313fc8a6e660c01b61479d565b612a92677320a24dd2ebfde160c01b61479d565b612aa6678acbe963e920cf7e60c01b61479d565b81612abb679df426f0703e124d60c01b61479d565b612acf67d55e77b91efaec1a60c01b61479d565b612ae36734da47596c81624260c01b61479d565b612af7671f9eb7828e6f586c60c01b61479d565b60075f8273ffffffffffffffffffffffffffffffffffffffff1673ffffffffffffffffffffffffffffffffffffffff1681526020019081526020015f206003015f9054906101000a900460ff16612b83576040517f08c379a0000000000000000000000000000000000000000000000000000000008152600401612b7a90615e95565b60405180910390fd5b612b9767cf8f43327ea0623b60c01b61479d565b612bab67852f74313fc8a6e660c01b61479d565b612bbf67150f167a1fb765f160c01b61479d565b612bd367c38207655f7601b760c01b61479d565b612be767a2f8d4653ca7e53860c01b61479d565b612bfb674c4ce5fda53e6e5b60c01b61479d565b612c0f67b86de59e354b10c860c01b61479d565b3373ffffffffffffffffffffffffffffffffffffffff168373ffffffffffffffffffffffffffffffffffffffff1603612c7d576040517f08c379a0000000000000000000000000000000000000000000000000000000008152600401612c749061616d565b60405180910390fd5b612c916715386eeec21477b560c01b61479d565b612ca5673b3132cd4fccbe6260c01b61479d565b612cb96766f79cc9abca804d60c01b61479d565b5f612cc433856117dc565b9050612cda67beda6633c9046d7060c01b61479d565b612cee67816d4e7ca98df0a660c01b61479d565b612d02672c6fdbc19cb66d5c60c01b61479d565b5f73ffffffffffffffffffffffffffffffffffffffff1660085f8381526020019081526020015f205f015f9054906101000a900473ffffffffffffffffffffffffffffffffffffffff1673ffffffffffffffffffffffffffffffffffffffff1614612da2576040517f08c379a0000000000000000000000000000000000000000000000000000000008152600401612d99906161d5565b60405180910390fd5b612db6676227acce9533ca0960c01b61479d565b612dca6790ba5cefae69b0f260c01b61479d565b612dde6761706476a0d5854660c01b61479d565b5f612de933866147dd565b9050612dff671c9c19074f8aaae660c01b61479d565b6040518060c001604052803373ffffffffffffffffffffffffffffffffffffffff1681526020018673ffffffffffffffffffffffffffffffffffffffff1681526020018281526020015f151581526020015f60ff1681526020014281525060085f8481526020019081526020015f205f820151815f015f6101000a81548173ffffffffffffffffffffffffffffffffffffffff021916908373ffffffffffffffffffffffffffffffffffffffff1602179055506020820151816001015f6101000a81548173ffffffffffffffffffffffffffffffffffffffff021916908373ffffffffffffffffffffffffffffffffffffffff160217905550604082015181600201556060820151816003015f6101000a81548160ff02191690831515021790555060808201518160030160016101000a81548160ff021916908360ff16021790555060a08201518160040155905050612f636797f1b4b3486d7b8a60c01b61479d565b60095f3373ffffffffffffffffffffffffffffffffffffffff1673ffffffffffffffffffffffffffffffffffffffff1681526020019081526020015f205f815480929190612fb0906161f3565b9190505550612fc9673b5b3a4e5ab652ab60c01b61479d565b60095f8673ffffffffffffffffffffffffffffffffffffffff1673ffffffffffffffffffffffffffffffffffffffff1681526020019081526020015f205f815480929190613016906161f3565b919050555061302f67782ea27d8d11873860c01b61479d565b60015f815480929190613041906161f3565b919050555061305a674c85d41bf194ebd160c01b61479d565b61306e67a50d5522c4c54c4a60c01b61479d565b613077816147b6565b5061308c67ed7e4e101216d2d460c01b61479d565b6130a067821aad92a3753e6560c01b61479d565b6130aa81336147c9565b506130bf67cc4d67ae4add6b8560c01b61479d565b6130d367b7884b3d40f3226360c01b61479d565b6130dd81866147c9565b506130f26750e083eae6e2d8f960c01b61479d565b61310667db28cdee387b3cf660c01b61479d565b8473ffffffffffffffffffffffffffffffffffffffff163373ffffffffffffffffffffffffffffffffffffffff167fcef58d824d8549ba1b05c2ab5812613eef1ece320a5a3d6531cbb358b5fb9f1c846040516131639190615778565b60405180910390a35050505050565b5f8054906101000a900473ffffffffffffffffffffffffffffffffffffffff1681565b5f6131aa67d20a594d66d8f1e260c01b61479d565b6131be676d17a20dd28c7e8960c01b61479d565b6131d267a27e9b9720efc65e60c01b61479d565b600380549050905090565b6008602052805f5260405f205f91509050805f015f9054906101000a900473ffffffffffffffffffffffffffffffffffffffff1690806001015f9054906101000a900473ffffffffffffffffffffffffffffffffffffffff1690806002015490806003015f9054906101000a900460ff16908060030160019054906101000a900460ff16908060040154905086565b60045f9054906101000a900460ff1681565b61329267d6b81e2458593dc360c01b61479d565b6132a667699d80b29cad918560c01b61479d565b6132ba67ac91f824a396055960c01b61479d565b6132ce67bc4315df8395b7b160c01b61479d565b6132e267fb1366ade071028d60c01b61479d565b60045f9054906101000a900460ff1615613331576040517f08c379a000000000000000000000000000000000000000000000000000000000815260040161332890615e2d565b60405180910390fd5b61334567272c4da9e338ba9460c01b61479d565b613359676b133ff730a6e97760c01b61479d565b61336d679ea4007d907547c860c01b61479d565b6133816781c64d882a538dc660c01b61479d565b61339567d07f53c3b550c9f860c01b61479d565b6133a9675a6b2e321bee597160c01b61479d565b6133bd67ece8a69a14b4995e60c01b61479d565b600c8360ff1610613403576040517f08c379a00000000000000000000000000000000000000000000000000000000081526004016133fa90615b3a565b60405180910390fd5b613417679e55fb3b0e1f3c9060c01b61479d565b61342b674b04b09c0b224add60c01b61479d565b61343f67e6009c80f81308b760c01b61479d565b61345367715541892c8b217560c01b61479d565b60048260ff1610613499576040517f08c379a000000000000000000000000000000000000000000000000000000000815260040161349090615efd565b60405180910390fd5b6134ad67306be5313c36e26c60c01b61479d565b6134c167d4d8782cbd37bf4260c01b61479d565b6134d567a1398a5aeb0de46760c01b61479d565b6134e9672b3662ba8d140c0b60c01b61479d565b60038160ff161061352f576040517f08c379a000000000000000000000000000000000000000000000000000000000815260040161352690615f65565b60405180910390fd5b61354367a8ff2e91e242a6ac60c01b61479d565b61355767c8b87a2c410e67d960c01b61479d565b61356b671f27c4bc92d3629760c01b61479d565b61357f67e7f5d175b5ed944d60c01b61479d565b60075f3373ffffffffffffffffffffffffffffffffffffffff1673ffffffffffffffffffffffffffffffffffffffff1681526020019081526020015f206003015f9054906101000a900460ff161561360c576040517f08c379a000000000000000000000000000000000000000000000000000000000815260040161360390616284565b60405180910390fd5b613620670b860bc05f7b2feb60c01b61479d565b6136346753104cdbb0f38a0760c01b61479d565b613648674db9e90e19a9d2a860c01b61479d565b5f613652846147a0565b905061366867e8eba397d9a0723560c01b61479d565b61367c67c661cd01a454f0ad60c01b61479d565b5f613686846147a0565b905061369c673acbdec824b37bb460c01b61479d565b6136b067aaa31b1c8829d59960c01b61479d565b5f6136ba846147a0565b90506136d067e8e53e141257f47560c01b61479d565b6040518060a001604052808481526020018381526020018281526020016001151581526020014281525060075f3373ffffffffffffffffffffffffffffffffffffffff1673ffffffffffffffffffffffffffffffffffffffff1681526020019081526020015f205f820151815f015560208201518160010155604082015181600201556060820151816003015f6101000a81548160ff02191690831515021790555060808201518160040155905050613793674d569f876f027e1860c01b61479d565b6137a767fbfc43997ad03d2560c01b61479d565b6137b0836147b6565b506137c567736a06ea12393f4960c01b61479d565b6137d9675a0c7ac7fc4940bf60c01b61479d565b6137e2826147b6565b506137f7674418aa98a040e0ca60c01b61479d565b61380b67d0a4cb42304f5a2d60c01b61479d565b613814816147b6565b50613829671eef46ff5c273bb660c01b61479d565b61383d677c75aaee9b2a045760c01b61479d565b61384783336147c9565b5061385c67da92f3ffca8bae1060c01b61479d565b61387067090d423a7d38063660c01b61479d565b61387a82336147c9565b5061388f67b75d769e671d979b60c01b61479d565b6138a367df59aef2a67a842e60c01b61479d565b6138ad81336147c9565b506138c267af8786145894209260c01b61479d565b6138d66726493d48a9ece7dd60c01b61479d565b3373ffffffffffffffffffffffffffffffffffffffff167ff10ec97e920cde75887622583772c637595a40b1f7777c18e51ea36cd127475c60405160405180910390a2505050505050565b5f805f805f61393a6726a8dd1df8704fd260c01b61479d565b61394e675a281f85ed5f110960c01b61479d565b613962677c42db3b89b5b98360c01b61479d565b5f600a5f8881526020019081526020015f20905061398a67cd34e108d288076d60c01b61479d565b61399e671e75936ee5ef6fb060c01b61479d565b806001015f9054906101000a900473ffffffffffffffffffffffffffffffffffffffff1681600201548260030154836004015f9054906101000a900460ff168460050154955095509550955095505091939590929450565b5f613a0b676018565069f578ab60c01b61479d565b613a1f6721bbd2c7cb00a58460c01b61479d565b613a3367dc7a92664e8b617960c01b61479d565b60045f9054906101000a900460ff1615905090565b613a5c670f2db05f61f5cc8160c01b61479d565b613a7067e39eb8209598cbe560c01b61479d565b613a8467c072a37d1027566560c01b61479d565b613a9867aba705b490373ef160c01b61479d565b613aac67df7855ffb7ad924160c01b61479d565b5f8054906101000a900473ffffffffffffffffffffffffffffffffffffffff1673ffffffffffffffffffffffffffffffffffffffff163373ffffffffffffffffffffffffffffffffffffffff1614613b39576040517f08c379a0000000000000000000000000000000000000000000000000000000008152600401613b3090615a6a565b60405180910390fd5b613b4d674eae9bcd91e193cc60c01b61479d565b613b6167f519efce22b8db4860c01b61479d565b613b7567213dcb09a4cd9cec60c01b61479d565b613b896703732eb9708f70a360c01b61479d565b613b9d67c9376ba4c89beef860c01b61479d565b613bb06664e6e6cffc65a460c01b61479d565b5f6002549050613bca676ad75b88dccb800b60c01b61479d565b81600281905550613be567c9cfa5857078eeae60c01b61479d565b613bf967e4096ad714663c3760c01b61479d565b7f81a4fe1759d58af96859f5799571b46cb438e5215a188511956a062695eb027c8183604051613c2a9291906162a2565b60405180910390a15050565b600a602052805f5260405f205f91509050805f015490806001015f9054906101000a900473ffffffffffffffffffffffffffffffffffffffff1690806002015490806003015490806004015f9054906101000a900460ff16908060050154905086565b5f613cae67beae6f4471d04ab860c01b61479d565b613cc267699d80b29cad918560c01b61479d565b613cd667ac91f824a396055960c01b61479d565b613cea67bc4315df8395b7b160c01b61479d565b613cfe67fb1366ade071028d60c01b61479d565b60045f9054906101000a900460ff1615613d4d576040517f08c379a0000000000000000000000000000000000000000000000000000000008152600401613d4490615e2d565b60405180910390fd5b613d6167272c4da9e338ba9460c01b61479d565b613d75676b133ff730a6e97760c01b61479d565b613d8967580d13d2fb9192b160c01b61479d565b613d9d67c36ba0091e94dacd60c01b61479d565b613db16736c18c4aec1ea82560c01b61479d565b613dc567b7856e245d42578360c01b61479d565b5f60085f8481526020019081526020015f209050613ded67a971bb9826e94b5260c01b61479d565b613e0167d5484b5a4b29b9f260c01b61479d565b613e1567e31d3961cff0defd60c01b61479d565b5f73ffffffffffffffffffffffffffffffffffffffff16815f015f9054906101000a900473ffffffffffffffffffffffffffffffffffffffff1673ffffffffffffffffffffffffffffffffffffffff1603613ea5576040517f08c379a0000000000000000000000000000000000000000000000000000000008152600401613e9c90616313565b60405180910390fd5b613eb96730e11b238b3bd25a60c01b61479d565b613ecd676e108e569a3401fa60c01b61479d565b613ee16763edb24ac792f2e460c01b61479d565b613ef5672615ffa4e1a7ddbb60c01b61479d565b805f015f9054906101000a900473ffffffffffffffffffffffffffffffffffffffff1673ffffffffffffffffffffffffffffffffffffffff163373ffffffffffffffffffffffffffffffffffffffff16148015613f625750613f6167f5e489485dc80fe960c01b614bc4565b5b80613fd75750806001015f9054906101000a900473ffffffffffffffffffffffffffffffffffffffff1673ffffffffffffffffffffffffffffffffffffffff163373ffffffffffffffffffffffffffffffffffffffff16148015613fd65750613fd567d3a7efed1c8f709d60c01b614bc4565b5b5b614016576040517f08c379a000000000000000000000000000000000000000000000000000000000815260040161400d90615a6a565b60405180910390fd5b61402a675725453b77bdb78c60c01b61479d565b61403e67056aa02ca0dac8e060c01b61479d565b6140526753e42dc1b06237a260c01b61479d565b614066671dde5973869a1d2f60c01b61479d565b806003015f9054906101000a900460ff16156140b7576040517f08c379a00000000000000000000000000000000000000000000000000000000081526004016140ae9061637b565b60405180910390fd5b6140cb67e6b06f15029abc3b60c01b61479d565b6140df677d9383eea1ee61a060c01b61479d565b6140f367b0fff3a26d474f1660c01b61479d565b5f60065f8154614102906161f3565b919050819055905061411e6750f951ebd38aa35060c01b61479d565b6040518060c001604052808281526020013373ffffffffffffffffffffffffffffffffffffffff1681526020018581526020014281526020015f15158152602001600254815250600a5f8381526020019081526020015f205f820151815f01556020820151816001015f6101000a81548173ffffffffffffffffffffffffffffffffffffffff021916908373ffffffffffffffffffffffffffffffffffffffff16021790555060408201518160020155606082015181600301556080820151816004015f6101000a81548160ff02191690831515021790555060a08201518160050155905050614218673b20c0ece239902e60c01b61479d565b6001826003015f6101000a81548160ff021916908315150217905550614248678f10a95f0565cac960c01b61479d565b61425c675ff81bb4a40b494860c01b61479d565b3373ffffffffffffffffffffffffffffffffffffffff1684827fa24e83c20f04c61bc3c0723ada6a82130aae83302e11749fb690e94e43c22329600254426040516142a89291906162a2565b60405180910390a46142c4677db5e96b1f3d39a760c01b61479d565b6142d86705436889f4ffd37d60c01b61479d565b8092505050919050565b5f6142eb614bce565b905090565b5f614305672e02a912624fe4e560c01b61479d565b614319675df22439f98ba3b160c01b61479d565b61432d670e3ed63f5384a90660c01b61479d565b5f73ffffffffffffffffffffffffffffffffffffffff1660085f8481526020019081526020015f205f015f9054906101000a900473ffffffffffffffffffffffffffffffffffffffff1673ffffffffffffffffffffffffffffffffffffffff1614159050919050565b6005602052805f5260405f205f915054906101000a900460ff1681565b60025481565b6143cd6757525ce477cf43d660c01b61479d565b6143e167e39eb8209598cbe560c01b61479d565b6143f567c072a37d1027566560c01b61479d565b61440967aba705b490373ef160c01b61479d565b61441d67df7855ffb7ad924160c01b61479d565b5f8054906101000a900473ffffffffffffffffffffffffffffffffffffffff1673ffffffffffffffffffffffffffffffffffffffff163373ffffffffffffffffffffffffffffffffffffffff16146144aa576040517f08c379a00000000000000000000000000000000000000000000000000000000081526004016144a190615a6a565b60405180910390fd5b6144be674eae9bcd91e193cc60c01b61479d565b6144d267f519efce22b8db4860c01b61479d565b6144e6671389cf95bd9284f560c01b61479d565b6144fa677d5a90aa1562d5ba60c01b61479d565b61450e679092ba028178ef1160c01b61479d565b6145226731997513a65248da60c01b61479d565b5f60085f8481526020019081526020015f20905061454a6758df4f2800f0212660c01b61479d565b61455e67ab491b202c513ef860c01b61479d565b614572672515f661052650eb60c01b61479d565b5f73ffffffffffffffffffffffffffffffffffffffff16815f015f9054906101000a900473ffffffffffffffffffffffffffffffffffffffff1673ffffffffffffffffffffffffffffffffffffffff1603614602576040517f08c379a00000000000000000000000000000000000000000000000000000000081526004016145f990616313565b60405180910390fd5b61461667d4fab07fc7549c6560c01b61479d565b61462a6799242a87961682a060c01b61479d565b61463e6729577c709e50c0a460c01b61479d565b61465267f038e8a63e83e4a360c01b61479d565b806003015f9054906101000a900460ff166146a2576040517f08c379a0000000000000000000000000000000000000000000000000000000008152600401614699906163e3565b60405180910390fd5b6146b667c8e89508f20e201660c01b61479d565b6146ca67c7e8af4ffa26da9860c01b61479d565b818160030160016101000a81548160ff021916908360ff1602179055506146fb6791d66f023e494fde60c01b61479d565b61470f67ea9d4e8e875eb14b60c01b61479d565b827fe31c8f1463226f974347ee350a458c554258a8d622221fce911488a2755ed8a28360405161473f9190616401565b60405180910390a2505050565b5f61476167bf9ff47a4ea70d0a60c01b61479d565b61477567cbb2215d6216c37360c01b61479d565b6147896709de09055c5ec89c60c01b61479d565b60045f9054906101000a900460ff16905090565b50565b5f6147af8260ff166002614bd7565b9050919050565b5f6147c18230614c8a565b819050919050565b5f6147d48383614c8a565b82905092915050565b5f6147f267aa9e7361e5b1690560c01b61479d565b614806674206203b67ba389d60c01b61479d565b61481a679e4c3d27e569a61760c01b61479d565b5f60075f8573ffffffffffffffffffffffffffffffffffffffff1673ffffffffffffffffffffffffffffffffffffffff1681526020019081526020015f20905061486e67be80e141e41ba6cd60c01b61479d565b61488267b48f9cc28221dbb660c01b61479d565b5f60075f8573ffffffffffffffffffffffffffffffffffffffff1673ffffffffffffffffffffffffffffffffffffffff1681526020019081526020015f2090506148d6672543b643dc257bdf60c01b61479d565b6148ea67e419bf82ffa8d9b160c01b61479d565b5f6148f560326147a0565b905061490b679622ebc90df4d42560c01b61479d565b61491f67013084616b1d0c2960c01b61479d565b5f61493284600101548460010154614d24565b9050614948678da9500232ff382760c01b61479d565b61495c67f5c3736e80d42a3260c01b61479d565b5f6149798261496b60146147a0565b6149745f6147a0565b614d6a565b905061498f67198f57beb5a524ab60c01b61479d565b6149a367431be1441b6a548260c01b61479d565b5f6149b686600201548660020154614d24565b90506149cc671a38d1eb81fe189b60c01b61479d565b6149e067c43359f1e37835d960c01b61479d565b5f6149fd826149ef600f6147a0565b6149f85f6147a0565b614d6a565b9050614a136710d959a99611d9f260c01b61479d565b614a276732c83444a4e2bfba60c01b61479d565b5f614a38885f0154885f0154614d24565b9050614a4e67d4e71a5c5abc17ae60c01b61479d565b614a6267e2770435037142be60c01b61479d565b5f614a7f82614a71600a6147a0565b614a7a5f6147a0565b614d6a565b9050614a9567dc440c5d1d3d313060c01b61479d565b614aa96752ac7463596905c960c01b61479d565b5f614ab48887614d7f565b9050614aca67495bf6ec609ec27d60c01b61479d565b614ad48185614d7f565b9050614aea67b7bfbee7013c590560c01b61479d565b614af48183614dc5565b9050614b0a675b0bbb57d3108e8260c01b61479d565b614b1e67e4b22eea8219312d60c01b61479d565b5f614b27614e0b565b9050614b3d67242e23f77795097e60c01b61479d565b614b5167c73e8dddca5b20a060c01b61479d565b5f614b6582614b60600f6147a0565b614e1b565b9050614b7b67a09f1fc95b8c236660c01b61479d565b614b858382614d7f565b9250614b9b6789347e47f6e8afea60c01b61479d565b614baf67bcc37f06cab9408060c01b61479d565b829c5050505050505050505050505092915050565b5f60019050919050565b5f612711905090565b5f80614be1614e61565b9050806001015f9054906101000a900473ffffffffffffffffffffffffffffffffffffffff1673ffffffffffffffffffffffffffffffffffffffff16639cd07acb85856040518363ffffffff1660e01b8152600401614c4192919061648d565b6020604051808303815f875af1158015614c5d573d5f803e3d5ffd5b505050506040513d601f19601f82011682018060405250810190614c8191906164c8565b91505092915050565b5f614c93614e61565b9050805f015f9054906101000a900473ffffffffffffffffffffffffffffffffffffffff1673ffffffffffffffffffffffffffffffffffffffff1663b9496b6284846040518363ffffffff1660e01b8152600401614cf29291906164f3565b5f604051808303815f87803b158015614d09575f80fd5b505af1158015614d1b573d5f803e3d5ffd5b50505050505050565b5f614d2e83614e88565b614d3e57614d3b5f6147a0565b92505b614d4782614e88565b614d5757614d545f6147a0565b91505b614d6283835f614e96565b905092915050565b5f614d76848484614f67565b90509392505050565b5f614d8983614e88565b614d9957614d965f6147a0565b92505b614da282614e88565b614db257614daf5f6147a0565b91505b614dbd83835f61501d565b905092915050565b5f614dcf83614e88565b614ddf57614ddc5f6147a0565b92505b614de882614e88565b614df857614df55f6147a0565b91505b614e0383835f6150ee565b905092915050565b5f614e1660026151bf565b905090565b5f614e2583614e88565b614e3557614e325f6147a0565b92505b614e3e82614e88565b614e4e57614e4b5f6147a0565b91505b614e5983835f61526f565b905092915050565b5f7f9e7b61f58c47dc699ac88507c4f5bb9f121c03808c5676a8078fe583e4649700905090565b5f805f1b8214159050919050565b5f808215614eaa57600160f81b9050614eb1565b5f60f81b90505b5f614eba614e61565b9050806001015f9054906101000a900473ffffffffffffffffffffffffffffffffffffffff1673ffffffffffffffffffffffffffffffffffffffff1663f77f3f1d8787856040518463ffffffff1660e01b8152600401614f1c93929190616554565b6020604051808303815f875af1158015614f38573d5f803e3d5ffd5b505050506040513d601f19601f82011682018060405250810190614f5c91906164c8565b925050509392505050565b5f80614f71614e61565b9050806001015f9054906101000a900473ffffffffffffffffffffffffffffffffffffffff1673ffffffffffffffffffffffffffffffffffffffff16637702dcff8686866040518463ffffffff1660e01b8152600401614fd393929190616589565b6020604051808303815f875af1158015614fef573d5f803e3d5ffd5b505050506040513d601f19601f8201168201806040525081019061501391906164c8565b9150509392505050565b5f80821561503157600160f81b9050615038565b5f60f81b90505b5f615041614e61565b9050806001015f9054906101000a900473ffffffffffffffffffffffffffffffffffffffff1673ffffffffffffffffffffffffffffffffffffffff1663117b2f388787856040518463ffffffff1660e01b81526004016150a393929190616554565b6020604051808303815f875af11580156150bf573d5f803e3d5ffd5b505050506040513d601f19601f820116820180604052508101906150e391906164c8565b925050509392505050565b5f80821561510257600160f81b9050615109565b5f60f81b90505b5f615112614e61565b9050806001015f9054906101000a900473ffffffffffffffffffffffffffffffffffffffff1673ffffffffffffffffffffffffffffffffffffffff1663182b6d988787856040518463ffffffff1660e01b815260040161517493929190616554565b6020604051808303815f875af1158015615190573d5f803e3d5ffd5b505050506040513d601f19601f820116820180604052508101906151b491906164c8565b925050509392505050565b5f806151c9614e61565b9050806001015f9054906101000a900473ffffffffffffffffffffffffffffffffffffffff1673ffffffffffffffffffffffffffffffffffffffff1663d75d6e8a846040518263ffffffff1660e01b815260040161522791906165be565b6020604051808303815f875af1158015615243573d5f803e3d5ffd5b505050506040513d601f19601f8201168201806040525081019061526791906164c8565b915050919050565b5f80821561528357600160f81b905061528a565b5f60f81b90505b5f615293614e61565b9050806001015f9054906101000a900473ffffffffffffffffffffffffffffffffffffffff1673ffffffffffffffffffffffffffffffffffffffff1663d99882d58787856040518463ffffffff1660e01b81526004016152f593929190616554565b6020604051808303815f875af1158015615311573d5f803e3d5ffd5b505050506040513d601f19601f8201168201806040525081019061533591906164c8565b925050509392505050565b5f80fd5b5f80fd5b5f819050919050565b61535a81615348565b8114615364575f80fd5b50565b5f8135905061537581615351565b92915050565b5f602082840312156153905761538f615340565b5b5f61539d84828501615367565b91505092915050565b5f73ffffffffffffffffffffffffffffffffffffffff82169050919050565b5f6153cf826153a6565b9050919050565b6153df816153c5565b82525050565b5f6020820190506153f85f8301846153d6565b92915050565b615407816153c5565b8114615411575f80fd5b50565b5f81359050615422816153fe565b92915050565b5f6020828403121561543d5761543c615340565b5b5f61544a84828501615414565b91505092915050565b61545c81615348565b82525050565b5f6020820190506154755f830184615453565b92915050565b5f8115159050919050565b61548f8161547b565b82525050565b5f6040820190506154a85f830185615486565b6154b56020830184615453565b9392505050565b5f819050919050565b5f6154cf826154bc565b9050919050565b6154df816154c5565b82525050565b5f60a0820190506154f85f8301886154d6565b61550560208301876154d6565b61551260408301866154d6565b61551f6060830185615486565b61552c6080830184615453565b9695505050505050565b5f6020820190506155495f830184615486565b92915050565b5f60ff82169050919050565b6155648161554f565b811461556e575f80fd5b50565b5f8135905061557f8161555b565b92915050565b5f6020828403121561559a57615599615340565b5b5f6155a784828501615571565b91505092915050565b5f81519050919050565b5f82825260208201905092915050565b5f5b838110156155e75780820151818401526020810190506155cc565b5f8484015250505050565b5f601f19601f8301169050919050565b5f61560c826155b0565b61561681856155ba565b93506156268185602086016155ca565b61562f816155f2565b840191505092915050565b6156438161554f565b82525050565b5f6060820190508181035f8301526156618186615602565b9050615670602083018561563a565b61567d604083018461563a565b949350505050565b61568e816154bc565b8114615698575f80fd5b50565b5f813590506156a981615685565b92915050565b5f602082840312156156c4576156c3615340565b5b5f6156d18482850161569b565b91505092915050565b5f60a0820190506156ed5f8301886153d6565b6156fa60208301876153d6565b6157076040830186615486565b615714606083018561563a565b6157216080830184615453565b9695505050505050565b5f806040838503121561574157615740615340565b5b5f61574e85828601615414565b925050602061575f85828601615414565b9150509250929050565b615772816154bc565b82525050565b5f60208201905061578b5f830184615769565b92915050565b5f80fd5b5f80fd5b5f80fd5b5f8083601f8401126157b2576157b1615791565b5b8235905067ffffffffffffffff8111156157cf576157ce615795565b5b6020830191508360018202830111156157eb576157ea615799565b5b9250929050565b5f805f805f6060868803121561580b5761580a615340565b5b5f61581888828901615367565b955050602086013567ffffffffffffffff81111561583957615838615344565b5b6158458882890161579d565b9450945050604086013567ffffffffffffffff81111561586857615867615344565b5b6158748882890161579d565b92509250509295509295909350565b5f805f6060848603121561589a57615899615340565b5b5f6158a786828701615571565b93505060206158b886828701615571565b92505060406158c986828701615571565b9150509250925092565b5f60c0820190506158e65f8301896153d6565b6158f360208301886153d6565b61590060408301876154d6565b61590d6060830186615486565b61591a608083018561563a565b61592760a0830184615453565b979650505050505050565b5f60a0820190506159455f8301886153d6565b6159526020830187615769565b61595f6040830186615453565b61596c6060830185615486565b6159796080830184615453565b9695505050505050565b5f60c0820190506159965f830189615453565b6159a360208301886153d6565b6159b06040830187615769565b6159bd6060830186615453565b6159ca6080830185615486565b6159d760a0830184615453565b979650505050505050565b5f80604083850312156159f8576159f7615340565b5b5f615a058582860161569b565b9250506020615a1685828601615571565b9150509250929050565b7f4e6f7420617574686f72697a65640000000000000000000000000000000000005f82015250565b5f615a54600e836155ba565b9150615a5f82615a20565b602082019050919050565b5f6020820190508181035f830152615a8181615a48565b9050919050565b7f4e6f7420706175736564000000000000000000000000000000000000000000005f82015250565b5f615abc600a836155ba565b9150615ac782615a88565b602082019050919050565b5f6020820190508181035f830152615ae981615ab0565b9050919050565b7f496e76616c6964207a6f646961630000000000000000000000000000000000005f82015250565b5f615b24600e836155ba565b9150615b2f82615af0565b602082019050919050565b5f6020820190508181035f830152615b5181615b18565b9050919050565b7f4e487b71000000000000000000000000000000000000000000000000000000005f52603260045260245ffd5b7f4e6f7420612070617573657200000000000000000000000000000000000000005f82015250565b5f615bb9600c836155ba565b9150615bc482615b85565b602082019050919050565b5f6020820190508181035f830152615be681615bad565b9050919050565b7f4e487b71000000000000000000000000000000000000000000000000000000005f52601160045260245ffd5b5f615c2482615348565b9150615c2f83615348565b9250828203905081811115615c4757615c46615bed565b5b92915050565b7f4e487b71000000000000000000000000000000000000000000000000000000005f52603160045260245ffd5b5f8160601b9050919050565b5f615c9082615c7a565b9050919050565b5f615ca182615c86565b9050919050565b615cb9615cb4826153c5565b615c97565b82525050565b5f615cca8285615ca8565b601482019150615cda8284615ca8565b6014820191508190509392505050565b7f496e76616c6964207265717565737400000000000000000000000000000000005f82015250565b5f615d1e600f836155ba565b9150615d2982615cea565b602082019050919050565b5f6020820190508181035f830152615d4b81615d12565b9050919050565b5f82825260208201905092915050565b828183375f83830152505050565b5f615d7b8385615d52565b9350615d88838584615d62565b615d91836155f2565b840190509392505050565b5f6060820190508181035f830152615db5818789615d70565b90508181036020830152615dca818587615d70565b9050615dd96040830184615453565b9695505050505050565b7f436f6e74726163742069732070617573656400000000000000000000000000005f82015250565b5f615e176012836155ba565b9150615e2282615de3565b602082019050919050565b5f6020820190508181035f830152615e4481615e0b565b9050919050565b7f5573657220686173206e6f2070726f66696c65000000000000000000000000005f82015250565b5f615e7f6013836155ba565b9150615e8a82615e4b565b602082019050919050565b5f6020820190508181035f830152615eac81615e73565b9050919050565b7f496e76616c696420656c656d656e7400000000000000000000000000000000005f82015250565b5f615ee7600f836155ba565b9150615ef282615eb3565b602082019050919050565b5f6020820190508181035f830152615f1481615edb565b9050919050565b7f496e76616c6964207175616c69747900000000000000000000000000000000005f82015250565b5f615f4f600f836155ba565b9150615f5a82615f1b565b602082019050919050565b5f6020820190508181035f830152615f7c81615f43565b9050919050565b7f496e646578206f7574206f6620626f756e6473000000000000000000000000005f82015250565b5f615fb76013836155ba565b9150615fc282615f83565b602082019050919050565b5f6020820190508181035f830152615fe481615fab565b9050919050565b7f496e76616c6964207061757365722061646472657373000000000000000000005f82015250565b5f61601f6016836155ba565b915061602a82615feb565b602082019050919050565b5f6020820190508181035f83015261604c81616013565b9050919050565b7f416c7265616479206120706175736572000000000000000000000000000000005f82015250565b5f6160876010836155ba565b915061609282616053565b602082019050919050565b5f6020820190508181035f8301526160b48161607b565b9050919050565b7f416c7265616479207061757365640000000000000000000000000000000000005f82015250565b5f6160ef600e836155ba565b91506160fa826160bb565b602082019050919050565b5f6020820190508181035f83015261611c816160e3565b9050919050565b7f43616e6e6f74206d61746368207769746820796f757273656c660000000000005f82015250565b5f616157601a836155ba565b915061616282616123565b602082019050919050565b5f6020820190508181035f8301526161848161614b565b9050919050565b7f4d6174636820616c7265616479206578697374730000000000000000000000005f82015250565b5f6161bf6014836155ba565b91506161ca8261618b565b602082019050919050565b5f6020820190508181035f8301526161ec816161b3565b9050919050565b5f6161fd82615348565b91507fffffffffffffffffffffffffffffffffffffffffffffffffffffffffffffffff820361622f5761622e615bed565b5b600182019050919050565b7f50726f66696c6520616c726561647920657869737473000000000000000000005f82015250565b5f61626e6016836155ba565b91506162798261623a565b602082019050919050565b5f6020820190508181035f83015261629b81616262565b9050919050565b5f6040820190506162b55f830185615453565b6162c26020830184615453565b9392505050565b7f4d6174636820646f6573206e6f742065786973740000000000000000000000005f82015250565b5f6162fd6014836155ba565b9150616308826162c9565b602082019050919050565b5f6020820190508181035f83015261632a816162f1565b9050919050565b7f53636f726520616c72656164792072657665616c6564000000000000000000005f82015250565b5f6163656016836155ba565b915061637082616331565b602082019050919050565b5f6020820190508181035f83015261639281616359565b9050919050565b7f4e6f7420726561647920666f722072657665616c0000000000000000000000005f82015250565b5f6163cd6014836155ba565b91506163d882616399565b602082019050919050565b5f6020820190508181035f8301526163fa816163c1565b9050919050565b5f6020820190506164145f83018461563a565b92915050565b7f4e487b71000000000000000000000000000000000000000000000000000000005f52602160045260245ffd5b605481106164585761645761641a565b5b50565b5f81905061646882616447565b919050565b5f6164778261645b565b9050919050565b6164878161646d565b82525050565b5f6040820190506164a05f830185615453565b6164ad602083018461647e565b9392505050565b5f815190506164c281615685565b92915050565b5f602082840312156164dd576164dc615340565b5b5f6164ea848285016164b4565b91505092915050565b5f6040820190506165065f830185615769565b61651360208301846153d6565b9392505050565b5f7fff0000000000000000000000000000000000000000000000000000000000000082169050919050565b61654e8161651a565b82525050565b5f6060820190506165675f830186615769565b6165746020830185615769565b6165816040830184616545565b949350505050565b5f60608201905061659c5f830186615769565b6165a96020830185615769565b6165b66040830184615769565b949350505050565b5f6020820190506165d15f83018461647e565b9291505056fea2646970667358221220babd432dc58524afc4f565cbf3861bbcc8aad51ed769915b470f113cf49b941a64736f6c63430008180033",
  "linkReferences": {},
  "deployedLinkReferences": {}
}