{
  "_format": "hh-sol-artifact-1",
  "contractName": "AstralCompatibility",
  "sourceName": "contracts/AstralCompatibility.sol",
  "abi": [
    {
      "inputs": [
        {
          "internalType": "address[]",
          "name": "_pauserAddresses",
          "type": "address[]"
        },
        {
          "internalType": "uint256",
          "name": "_kmsGeneration",
          "type": "uint256"
        }
      ],
      "stateMutability": "nonpayable",
      "type": "constructor"
    },
    {
      "anonymous": false,
      "inputs": [
        {
          "indexed": true,
          "internalType": "bytes32",
          "name": "matchId",
          "type": "bytes32"
        },
        {
          "indexed": false,
          "internalType": "uint8",
          "name": "score",
          "type": "uint8"
        }
      ],
      "name": "CompatibilityRevealed",
      "type": "event"
    },
    {
      "anonymous": false,
      "inputs": [
        {
          "indexed": true,
          "internalType": "address",
          "name": "by",
          "type": "address"
        },
        {
          "indexed": false,
          "internalType": "uint256",
          "name": "timestamp",
          "type": "uint256"
        }
      ],
      "name": "ContractPaused",
      "type": "event"
    },
    {
      "anonymous": false,
      "inputs": [
        {
          "indexed": true,
          "internalType": "address",
          "name": "by",
          "type": "address"
        },
        {
          "indexed": false,
          "internalType": "uint256",
          "name": "timestamp",
          "type": "uint256"
        }
      ],
      "name": "ContractUnpaused",
      "type": "event"
    },
    {
      "anonymous": false,
      "inputs": [
        {
          "indexed": true,
          "internalType": "uint256",
          "name": "requestId",
          "type": "uint256"
        },
        {
          "indexed": true,
          "internalType": "bytes32",
          "name": "matchId",
          "type": "bytes32"
        },
        {
          "indexed": true,
          "internalType": "address",
          "name": "requester",
          "type": "address"
        },
        {
          "indexed": false,
          "internalType": "uint256",
          "name": "kmsGeneration",
          "type": "uint256"
        },
        {
          "indexed": false,
          "internalType": "uint256",
          "name": "timestamp",
          "type": "uint256"
        }
      ],
      "name": "DecryptionRequested",
      "type": "event"
    },
    {
      "anonymous": false,
      "inputs": [
        {
          "indexed": true,
          "internalType": "uint256",
          "name": "requestId",
          "type": "uint256"
        },
        {
          "indexed": true,
          "internalType": "address",
          "name": "kmsNode",
          "type": "address"
        },
        {
          "indexed": false,
          "internalType": "bytes",
          "name": "encryptedShare",
          "type": "bytes"
        },
        {
          "indexed": false,
          "internalType": "bytes",
          "name": "signature",
          "type": "bytes"
        },
        {
          "indexed": false,
          "internalType": "uint256",
          "name": "timestamp",
          "type": "uint256"
        }
      ],
      "name": "DecryptionResponse",
      "type": "event"
    },
    {
      "anonymous": false,
      "inputs": [
        {
          "indexed": false,
          "internalType": "uint256",
          "name": "oldGeneration",
          "type": "uint256"
        },
        {
          "indexed": false,
          "internalType": "uint256",
          "name": "newGeneration",
          "type": "uint256"
        }
      ],
      "name": "KmsGenerationUpdated",
      "type": "event"
    },
    {
      "anonymous": false,
      "inputs": [
        {
          "indexed": true,
          "internalType": "address",
          "name": "user1",
          "type": "address"
        },
        {
          "indexed": true,
          "internalType": "address",
          "name": "user2",
          "type": "address"
        },
        {
          "indexed": false,
          "internalType": "bytes32",
          "name": "matchId",
          "type": "bytes32"
        }
      ],
      "name": "MatchRequested",
      "type": "event"
    },
    {
      "anonymous": false,
      "inputs": [
        {
          "indexed": true,
          "internalType": "address",
          "name": "pauser",
          "type": "address"
        },
        {
          "indexed": false,
          "internalType": "uint256",
          "name": "timestamp",
          "type": "uint256"
        }
      ],
      "name": "PauserAdded",
      "type": "event"
    },
    {
      "anonymous": false,
      "inputs": [
        {
          "indexed": true,
          "internalType": "address",
          "name": "pauser",
          "type": "address"
        },
        {
          "indexed": false,
          "internalType": "uint256",
          "name": "timestamp",
          "type": "uint256"
        }
      ],
      "name": "PauserRemoved",
      "type": "event"
    },
    {
      "anonymous": false,
      "inputs": [
        {
          "indexed": true,
          "internalType": "address",
          "name": "user",
          "type": "address"
        }
      ],
      "name": "ProfileCreated",
      "type": "event"
    },
    {
      "inputs": [
        {
          "internalType": "address",
          "name": "_pauser",
          "type": "address"
        }
      ],
      "name": "addPauser",
      "outputs": [],
      "stateMutability": "nonpayable",
      "type": "function"
    },
    {
      "inputs": [
        {
          "internalType": "uint8",
          "name": "_zodiac",
          "type": "uint8"
        },
        {
          "internalType": "uint8",
          "name": "_element",
          "type": "uint8"
        },
        {
          "internalType": "uint8",
          "name": "_quality",
          "type": "uint8"
        }
      ],
      "name": "createProfile",
      "outputs": [],
      "stateMutability": "nonpayable",
      "type": "function"
    },
    {
      "inputs": [],
      "name": "decryptionRequestCounter",
      "outputs": [
        {
          "internalType": "uint256",
          "name": "",
          "type": "uint256"
        }
      ],
      "stateMutability": "view",
      "type": "function"
    },
    {
      "inputs": [
        {
          "internalType": "uint256",
          "name": "",
          "type": "uint256"
        }
      ],
      "name": "decryptionRequests",
      "outputs": [
        {
          "internalType": "uint256",
          "name": "requestId",
          "type": "uint256"
        },
        {
          "internalType": "address",
          "name": "requester",
          "type": "address"
        },
        {
          "internalType": "bytes32",
          "name": "matchId",
          "type": "bytes32"
        },
        {
          "internalType": "uint256",
          "name": "timestamp",
          "type": "uint256"
        },
        {
          "internalType": "bool",
          "name": "fulfilled",
          "type": "bool"
        },
        {
          "internalType": "uint256",
          "name": "kmsGeneration",
          "type": "uint256"
        }
      ],
      "stateMutability": "view",
      "type": "function"
    },
    {
      "inputs": [
        {
          "internalType": "address",
          "name": "_user1",
          "type": "address"
        },
        {
          "internalType": "address",
          "name": "_user2",
          "type": "address"
        }
      ],
      "name": "generateMatchId",
      "outputs": [
        {
          "internalType": "bytes32",
          "name": "",
          "type": "bytes32"
        }
      ],
      "stateMutability": "pure",
      "type": "function"
    },
    {
      "inputs": [
        {
          "internalType": "uint256",
          "name": "_requestId",
          "type": "uint256"
        }
      ],
      "name": "getDecryptionRequestInfo",
      "outputs": [
        {
          "internalType": "address",
          "name": "requester",
          "type": "address"
        },
        {
          "internalType": "bytes32",
          "name": "matchId",
          "type": "bytes32"
        },
        {
          "internalType": "uint256",
          "name": "timestamp",
          "type": "uint256"
        },
        {
          "internalType": "bool",
          "name": "fulfilled",
          "type": "bool"
        },
        {
          "internalType": "uint256",
          "name": "kmsGen",
          "type": "uint256"
        }
      ],
      "stateMutability": "view",
      "type": "function"
    },
    {
      "inputs": [
        {
          "internalType": "bytes32",
          "name": "_matchId",
          "type": "bytes32"
        }
      ],
      "name": "getMatchInfo",
      "outputs": [
        {
          "internalType": "address",
          "name": "user1",
          "type": "address"
        },
        {
          "internalType": "address",
          "name": "user2",
          "type": "address"
        },
        {
          "internalType": "bool",
          "name": "isRevealed",
          "type": "bool"
        },
        {
          "internalType": "uint8",
          "name": "publicScore",
          "type": "uint8"
        },
        {
          "internalType": "uint256",
          "name": "matchTime",
          "type": "uint256"
        }
      ],
      "stateMutability": "view",
      "type": "function"
    },
    {
      "inputs": [
        {
          "internalType": "uint256",
          "name": "_index",
          "type": "uint256"
        }
      ],
      "name": "getPauserAtIndex",
      "outputs": [
        {
          "internalType": "address",
          "name": "",
          "type": "address"
        }
      ],
      "stateMutability": "view",
      "type": "function"
    },
    {
      "inputs": [],
      "name": "getPauserCount",
      "outputs": [
        {
          "internalType": "uint256",
          "name": "",
          "type": "uint256"
        }
      ],
      "stateMutability": "view",
      "type": "function"
    },
    {
      "inputs": [
        {
          "internalType": "address",
          "name": "_user",
          "type": "address"
        }
      ],
      "name": "getUserProfileStatus",
      "outputs": [
        {
          "internalType": "bool",
          "name": "profileExists",
          "type": "bool"
        },
        {
          "internalType": "uint256",
          "name": "timestamp",
          "type": "uint256"
        }
      ],
      "stateMutability": "view",
      "type": "function"
    },
    {
      "inputs": [
        {
          "internalType": "address",
          "name": "_user",
          "type": "address"
        }
      ],
      "name": "getUserStats",
      "outputs": [
        {
          "internalType": "uint256",
          "name": "matchCount",
          "type": "uint256"
        }
      ],
      "stateMutability": "view",
      "type": "function"
    },
    {
      "inputs": [
        {
          "internalType": "uint8",
          "name": "_zodiac",
          "type": "uint8"
        }
      ],
      "name": "getZodiacInfo",
      "outputs": [
        {
          "internalType": "string",
          "name": "name",
          "type": "string"
        },
        {
          "internalType": "uint8",
          "name": "element",
          "type": "uint8"
        },
        {
          "internalType": "uint8",
          "name": "quality",
          "type": "uint8"
        }
      ],
      "stateMutability": "pure",
      "type": "function"
    },
    {
      "inputs": [],
      "name": "isContractPaused",
      "outputs": [
        {
          "internalType": "bool",
          "name": "",
          "type": "bool"
        }
      ],
      "stateMutability": "view",
      "type": "function"
    },
    {
      "inputs": [
        {
          "internalType": "bytes32",
          "name": "_matchId",
          "type": "bytes32"
        }
      ],
      "name": "isMatchValid",
      "outputs": [
        {
          "internalType": "bool",
          "name": "",
          "type": "bool"
        }
      ],
      "stateMutability": "view",
      "type": "function"
    },
    {
      "inputs": [],
      "name": "isPaused",
      "outputs": [
        {
          "internalType": "bool",
          "name": "",
          "type": "bool"
        }
      ],
      "stateMutability": "view",
      "type": "function"
    },
    {
      "inputs": [
        {
          "internalType": "address",
          "name": "_address",
          "type": "address"
        }
      ],
      "name": "isPauser",
      "outputs": [
        {
          "internalType": "bool",
          "name": "",
          "type": "bool"
        }
      ],
      "stateMutability": "view",
      "type": "function"
    },
    {
      "inputs": [
        {
          "internalType": "address",
          "name": "",
          "type": "address"
        }
      ],
      "name": "isPauserAddress",
      "outputs": [
        {
          "internalType": "bool",
          "name": "",
          "type": "bool"
        }
      ],
      "stateMutability": "view",
      "type": "function"
    },
    {
      "inputs": [],
      "name": "isPublicDecryptAllowed",
      "outputs": [
        {
          "internalType": "bool",
          "name": "",
          "type": "bool"
        }
      ],
      "stateMutability": "view",
      "type": "function"
    },
    {
      "inputs": [],
      "name": "kmsGeneration",
      "outputs": [
        {
          "internalType": "uint256",
          "name": "",
          "type": "uint256"
        }
      ],
      "stateMutability": "view",
      "type": "function"
    },
    {
      "inputs": [
        {
          "internalType": "bytes32",
          "name": "",
          "type": "bytes32"
        }
      ],
      "name": "matches",
      "outputs": [
        {
          "internalType": "address",
          "name": "user1",
          "type": "address"
        },
        {
          "internalType": "address",
          "name": "user2",
          "type": "address"
        },
        {
          "internalType": "euint8",
          "name": "compatibilityScore",
          "type": "bytes32"
        },
        {
          "internalType": "bool",
          "name": "isRevealed",
          "type": "bool"
        },
        {
          "internalType": "uint8",
          "name": "publicScore",
          "type": "uint8"
        },
        {
          "internalType": "uint256",
          "name": "matchTime",
          "type": "uint256"
        }
      ],
      "stateMutability": "view",
      "type": "function"
    },
    {
      "inputs": [],
      "name": "owner",
      "outputs": [
        {
          "internalType": "address",
          "name": "",
          "type": "address"
        }
      ],
      "stateMutability": "view",
      "type": "function"
    },
    {
      "inputs": [],
      "name": "pause",
      "outputs": [],
      "stateMutability": "nonpayable",
      "type": "function"
    },
    {
      "inputs": [
        {
          "internalType": "uint256",
          "name": "",
          "type": "uint256"
        }
      ],
      "name": "pauserAddresses",
      "outputs": [
        {
          "internalType": "address",
          "name": "",
          "type": "address"
        }
      ],
      "stateMutability": "view",
      "type": "function"
    },
    {
      "inputs": [
        {
          "internalType": "bytes32",
          "name": "matchId",
          "type": "bytes32"
        },
        {
          "internalType": "uint8",
          "name": "decryptedValue",
          "type": "uint8"
        }
      ],
      "name": "processScoreReveal",
      "outputs": [],
      "stateMutability": "nonpayable",
      "type": "function"
    },
    {
      "inputs": [],
      "name": "protocolId",
      "outputs": [
        {
          "internalType": "uint256",
          "name": "",
          "type": "uint256"
        }
      ],
      "stateMutability": "pure",
      "type": "function"
    },
    {
      "inputs": [
        {
          "internalType": "address",
          "name": "_pauser",
          "type": "address"
        }
      ],
      "name": "removePauser",
      "outputs": [],
      "stateMutability": "nonpayable",
      "type": "function"
    },
    {
      "inputs": [
        {
          "internalType": "address",
          "name": "_partner",
          "type": "address"
        }
      ],
      "name": "requestCompatibilityMatch",
      "outputs": [],
      "stateMutability": "nonpayable",
      "type": "function"
    },
    {
      "inputs": [
        {
          "internalType": "bytes32",
          "name": "_matchId",
          "type": "bytes32"
        }
      ],
      "name": "revealCompatibilityScore",
      "outputs": [
        {
          "internalType": "uint256",
          "name": "",
          "type": "uint256"
        }
      ],
      "stateMutability": "nonpayable",
      "type": "function"
    },
    {
      "inputs": [
        {
          "internalType": "uint256",
          "name": "_requestId",
          "type": "uint256"
        },
        {
          "internalType": "bytes",
          "name": "_encryptedShare",
          "type": "bytes"
        },
        {
          "internalType": "bytes",
          "name": "_signature",
          "type": "bytes"
        }
      ],
      "name": "submitDecryptionResponse",
      "outputs": [],
      "stateMutability": "nonpayable",
      "type": "function"
    },
    {
      "inputs": [],
      "name": "totalMatches",
      "outputs": [
        {
          "internalType": "uint256",
          "name": "",
          "type": "uint256"
        }
      ],
      "stateMutability": "view",
      "type": "function"
    },
    {
      "inputs": [],
      "name": "unpause",
      "outputs": [],
      "stateMutability": "nonpayable",
      "type": "function"
    },
    {
      "inputs": [
        {
          "internalType": "uint256",
          "name": "_newGeneration",
          "type": "uint256"
        }
      ],
      "name": "updateKmsGeneration",
      "outputs": [],
      "stateMutability": "nonpayable",
      "type": "function"
    },
    {
      "inputs": [
        {
          "internalType": "uint8",
          "name": "_zodiac",
          "type": "uint8"
        },
        {
          "internalType": "uint8",
          "name": "_element",
          "type": "uint8"
        },
        {
          "internalType": "uint8",
          "name": "_quality",
          "type": "uint8"
        }
      ],
      "name": "updateProfile",
      "outputs": [],
      "stateMutability": "nonpayable",
      "type": "function"
    },
    {
      "inputs": [
        {
          "internalType": "address",
          "name": "",
          "type": "address"
        }
      ],
      "name": "userMatchCount",
      "outputs": [
        {
          "internalType": "uint256",
          "name": "",
          "type": "uint256"
        }
      ],
      "stateMutability": "view",
      "type": "function"
    },
    {
      "inputs": [
        {
          "internalType": "address",
          "name": "",
          "type": "address"
        }
      ],
      "name": "userProfiles",
      "outputs": [
        {
          "internalType": "euint8",
          "name": "encryptedZodiac",
          "type": "bytes32"
        },
        {
          "internalType": "euint8",
          "name": "encryptedElement",
          "type": "bytes32"
        },
        {
          "internalType": "euint8",
          "name": "encryptedQuality",
          "type": "bytes32"
        },
        {
          "internalType": "bool",
          "name": "hasProfile",
          "type": "bool"
        },
        {
          "internalType": "uint256",
          "name": "timestamp",
          "type": "uint256"
        }
      ],
      "stateMutability": "view",
      "type": "function"
    }
  ],
  "bytecode": "0x608060405234801562000010575f80fd5b5060405162002a2b38038062002a2b833981016040819052620000339162000330565b620001af620000d3604080516080810182525f808252602082018190529181018290526060810191909152506040805160808101825273687820221192c5b662b25367f70076a37bc79b6c815273848b0066793bcc60346da1f49049357399b8d595602082015273a02cda4ca3a71d7c46997716f4283aa851c2881291810191909152731364cbbf2cdf5032c47d8226a6f6fbd2afcdacac606082015290565b80517f9e7b61f58c47dc699ac88507c4f5bb9f121c03808c5676a8078fe583e464970080546001600160a01b03199081166001600160a01b039384161790915560208301517f9e7b61f58c47dc699ac88507c4f5bb9f121c03808c5676a8078fe583e46497018054831691841691909117905560408301517f9e7b61f58c47dc699ac88507c4f5bb9f121c03808c5676a8078fe583e46497028054831691841691909117905560608301517f9e7b61f58c47dc699ac88507c4f5bb9f121c03808c5676a8078fe583e46497038054909216921691909117905550565b5f80546001600160a01b03191633178155600181905560028290556004805460ff1916905560068190555b8251811015620002f7576003838281518110620001fb57620001fb62000405565b6020908102919091018101518254600180820185555f9485529284200180546001600160a01b0319166001600160a01b039092169190911790558451909160059186908590811062000251576200025162000405565b60200260200101516001600160a01b03166001600160a01b031681526020019081526020015f205f6101000a81548160ff021916908315150217905550828181518110620002a357620002a362000405565b60200260200101516001600160a01b03167f0ad15ebec79c7d7b2785c7b5d8a7df78be193da0f65dff2d7c539a0992d53e3742604051620002e691815260200190565b60405180910390a2600101620001da565b50505062000419565b634e487b7160e01b5f52604160045260245ffd5b80516001600160a01b03811681146200032b575f80fd5b919050565b5f806040838503121562000342575f80fd5b82516001600160401b038082111562000359575f80fd5b818501915085601f8301126200036d575f80fd5b815160208282111562000384576200038462000300565b8160051b604051601f19603f83011681018181108682111715620003ac57620003ac62000300565b604052928352818301935084810182019289841115620003ca575f80fd5b948201945b83861015620003f357620003e38662000314565b85529482019493820193620003cf565b97909101519698969750505050505050565b634e487b7160e01b5f52603260045260245ffd5b61260480620004275f395ff3fe608060405234801561000f575f80fd5b5060043610610208575f3560e01c80638456cb591161011f578063c84cd8c0116100a9578063dbc9023e11610079578063dbc9023e146106e8578063dcaee50214610712578063e513af6014610734578063f424939f1461073d578063f4ab292814610750575f80fd5b8063c84cd8c014610631578063d3722d0114610644578063d833a51a146106cd578063da1f12ab146106e0575f80fd5b80639fe9ada3116100ef5780639fe9ada3146104f2578063b187bd2614610584578063b2bef0b014610591578063bad0afaf146105a4578063c801d75814610625575f80fd5b80638456cb59146104bd5780638ab92f48146104c55780638da5cb5b146104d857806391136b65146104ea575f80fd5b80634efe4f6a116101a05780636d8d2c6d116101705780636d8d2c6d146104685780637499888f146104715780637a501d74146104845780637adfe96e1461049757806382dc1ec4146104aa575f80fd5b80634efe4f6a146103965780636b2c0f55146103b85780636b8a4928146103cb5780636b9e968014610455575f80fd5b8063332d56d7116101db578063332d56d7146102c05780633f4ba83a1461032957806346fbf68e146103335780634e43603a1461036e575f80fd5b8063026fef7f1461020c5780630821d0ef1461023c5780632a5b1451146102695780632c2c4f9c14610272575b5f80fd5b61021f61021a36600461218b565b61075b565b6040516001600160a01b0390911681526020015b60405180910390f35b61025b61024a3660046121b8565b60096020525f908152604090205481565b604051908152602001610233565b61025b60015481565b6102a96102803660046121b8565b6001600160a01b03165f908152600760205260409020600381015460049091015460ff90911691565b604080519215158352602083019190915201610233565b6102ff6102ce3660046121b8565b60076020525f90815260409020805460018201546002830154600384015460049094015492939192909160ff169085565b6040805195865260208601949094529284019190915215156060830152608082015260a001610233565b610331610783565b005b61035e6103413660046121b8565b6001600160a01b03165f9081526005602052604090205460ff1690565b6040519015158152602001610233565b61025b61037c3660046121b8565b6001600160a01b03165f9081526009602052604090205490565b6103a96103a43660046121e1565b610836565b604051610233939291906121fa565b6103316103c63660046121b8565b610b80565b61041a6103d936600461218b565b5f9081526008602052604090208054600182015460038301546004909301546001600160a01b0392831694929091169260ff80821693610100909204169190565b604080516001600160a01b0396871681529590941660208601529115159284019290925260ff9091166060830152608082015260a001610233565b61025b610463366004612259565b610d5a565b61025b60065481565b61033161047f3660046122cf565b610df0565b610331610492366004612343565b610e8f565b61021f6104a536600461218b565b611025565b6103316104b83660046121b8565b61109b565b610331611203565b6103316104d33660046121b8565b6112d5565b5f5461021f906001600160a01b031681565b60035461025b565b61054761050036600461218b565b60086020525f9081526040902080546001820154600283015460038401546004909401546001600160a01b03938416949390921692909160ff808316926101009004169086565b604080516001600160a01b039788168152969095166020870152938501929092521515606084015260ff16608083015260a082015260c001610233565b60045461035e9060ff1681565b61033161059f366004612343565b611599565b6105f16105b236600461218b565b5f908152600a6020526040902060018101546002820154600383015460048401546005909401546001600160a01b03909316949193909260ff90911691565b604080516001600160a01b03909616865260208601949094529284019190915215156060830152608082015260a001610233565b60045460ff161561035e565b61033161063f36600461218b565b6117c2565b61069661065236600461218b565b600a6020525f908152604090208054600182015460028301546003840154600485015460059095015493946001600160a01b03909316939192909160ff9091169086565b604080519687526001600160a01b0390951660208701529385019290925260608401521515608083015260a082015260c001610233565b61025b6106db36600461218b565b611830565b61271161025b565b61035e6106f636600461218b565b5f908152600860205260409020546001600160a01b0316151590565b61035e6107203660046121b8565b60056020525f908152604090205460ff1681565b61025b60025481565b61033161074b366004612383565b611a49565b60045460ff1661035e565b6003818154811061076a575f80fd5b5f918252602090912001546001600160a01b0316905081565b5f546001600160a01b031633146107b55760405162461bcd60e51b81526004016107ac906123a4565b60405180910390fd5b60045460ff166107f45760405162461bcd60e51b815260206004820152600a602482015269139bdd081c185d5cd95960b21b60448201526064016107ac565b6004805460ff1916905560405142815233907f107553d8191d85b405879cf752997865edd48d94e20bda4dd27223c94b31a7cc906020015b60405180910390a2565b60605f80600c8460ff161061085d5760405162461bcd60e51b81526004016107ac906123cc565b5f60405180610180016040528060405180604001604052806005815260200164417269657360d81b81525081526020016040518060400160405280600681526020016554617572757360d01b81525081526020016040518060400160405280600681526020016547656d696e6960d01b81525081526020016040518060400160405280600681526020016521b0b731b2b960d11b8152508152602001604051806040016040528060038152602001624c656f60e81b815250815260200160405180604001604052806005815260200164566972676f60d81b8152508152602001604051806040016040528060058152602001644c6962726160d81b81525081526020016040518060400160405280600781526020016653636f7270696f60c81b81525081526020016040518060400160405280600b81526020016a536167697474617269757360a81b81525081526020016040518060400160405280600981526020016821b0b83934b1b7b93760b91b815250815260200160405180604001604052806008815260200167417175617269757360c01b81525081526020016040518060400160405280600681526020016550697363657360d01b81525081525090505f6040518061018001604052805f60ff168152602001600160ff168152602001600260ff168152602001600360ff1681526020015f60ff168152602001600160ff168152602001600260ff168152602001600360ff1681526020015f60ff168152602001600160ff168152602001600260ff168152602001600360ff1681525090505f6040518061018001604052805f60ff168152602001600160ff168152602001600260ff1681526020015f60ff168152602001600160ff168152602001600260ff1681526020015f60ff168152602001600160ff168152602001600260ff1681526020015f60ff168152602001600160ff168152602001600260ff168152509050828760ff16600c8110610b3757610b376123f4565b6020020151828860ff16600c8110610b5157610b516123f4565b6020020151828960ff16600c8110610b6b57610b6b6123f4565b60200201519550955095505050509193909250565b5f546001600160a01b03163314610ba95760405162461bcd60e51b81526004016107ac906123a4565b6001600160a01b0381165f9081526005602052604090205460ff16610bff5760405162461bcd60e51b815260206004820152600c60248201526b2737ba1030903830bab9b2b960a11b60448201526064016107ac565b6001600160a01b0381165f908152600560205260408120805460ff191690555b600354811015610d1357816001600160a01b031660038281548110610c4657610c466123f4565b5f918252602090912001546001600160a01b031603610d0b5760038054610c6f9060019061241c565b81548110610c7f57610c7f6123f4565b5f91825260209091200154600380546001600160a01b039092169183908110610caa57610caa6123f4565b905f5260205f20015f6101000a8154816001600160a01b0302191690836001600160a01b031602179055506003805480610ce657610ce661242f565b5f8281526020902081015f1990810180546001600160a01b0319169055019055610d13565b600101610c1f565b50806001600160a01b03167f09d663ecc0eac31928bc933e50d7b947f6c93e150383c8c0b317c437a0f0a12d42604051610d4f91815260200190565b60405180910390a250565b5f816001600160a01b0316836001600160a01b03161015610dbc576040516bffffffffffffffffffffffff19606085811b8216602084015284901b1660348201526048015b604051602081830303815290604052805190602001209050610dea565b6040516bffffffffffffffffffffffff19606084811b8216602084015285901b166034820152604801610d9f565b92915050565b5f858152600a60205260409020548514610e3e5760405162461bcd60e51b815260206004820152600f60248201526e125b9d985b1a59081c995c5d595cdd608a1b60448201526064016107ac565b336001600160a01b0316857f7c928c5fcc307a0be08cab90a20b1e1233adb2226579e4118fb62ee51801318f8686868642604051610e8095949392919061246b565b60405180910390a35050505050565b60045460ff1615610eb25760405162461bcd60e51b81526004016107ac906124a4565b335f8181526007602052604090206003015460ff16610ee35760405162461bcd60e51b81526004016107ac906124d0565b600c8460ff1610610f065760405162461bcd60e51b81526004016107ac906123cc565b60048360ff1610610f4b5760405162461bcd60e51b815260206004820152600f60248201526e125b9d985b1a5908195b195b595b9d608a1b60448201526064016107ac565b60038260ff1610610f905760405162461bcd60e51b815260206004820152600f60248201526e496e76616c6964207175616c69747960881b60448201526064016107ac565b335f908152600760205260409020610fa785611b6e565b8155610fb284611b6e565b6001820155610fc083611b6e565b60028201554260048201558054610fd690611b7d565b50610fe48160010154611b7d565b50610ff28160020154611b7d565b508054610fff9033611b8c565b5061100e816001015433611b8c565b5061101d816002015433611b8c565b505050505050565b6003545f90821061106e5760405162461bcd60e51b8152602060048201526013602482015272496e646578206f7574206f6620626f756e647360681b60448201526064016107ac565b60038281548110611081576110816123f4565b5f918252602090912001546001600160a01b031692915050565b5f546001600160a01b031633146110c45760405162461bcd60e51b81526004016107ac906123a4565b6001600160a01b0381166111135760405162461bcd60e51b8152602060048201526016602482015275496e76616c696420706175736572206164647265737360501b60448201526064016107ac565b6001600160a01b0381165f9081526005602052604090205460ff161561116e5760405162461bcd60e51b815260206004820152601060248201526f20b63932b0b23c9030903830bab9b2b960811b60448201526064016107ac565b6003805460018082019092557fc2575a0e9e593c00f959f8c92f12db2869c3395a3b0502d05e2516446f71f85b0180546001600160a01b0319166001600160a01b0384169081179091555f81815260056020908152604091829020805460ff19169094179093555142815290917f0ad15ebec79c7d7b2785c7b5d8a7df78be193da0f65dff2d7c539a0992d53e379101610d4f565b335f9081526005602052604090205460ff166112505760405162461bcd60e51b815260206004820152600c60248201526b2737ba1030903830bab9b2b960a11b60448201526064016107ac565b60045460ff16156112945760405162461bcd60e51b815260206004820152600e60248201526d105b1c9958591e481c185d5cd95960921b60448201526064016107ac565b6004805460ff1916600117905560405133907f80170b5fcdd2bf1e0660ef4b8851f86685f64d41b1a19de1471947ece8725aac9061082c9042815260200190565b60045460ff16156112f85760405162461bcd60e51b81526004016107ac906124a4565b335f8181526007602052604090206003015460ff166113295760405162461bcd60e51b81526004016107ac906124d0565b6001600160a01b0382165f90815260076020526040902060030154829060ff166113655760405162461bcd60e51b81526004016107ac906124d0565b336001600160a01b038416036113bd5760405162461bcd60e51b815260206004820152601a60248201527f43616e6e6f74206d61746368207769746820796f757273656c6600000000000060448201526064016107ac565b5f6113c83385610d5a565b5f818152600860205260409020549091506001600160a01b0316156114265760405162461bcd60e51b81526020600482015260146024820152734d6174636820616c72656164792065786973747360601b60448201526064016107ac565b5f6114313386611b9e565b6040805160c081018252338082526001600160a01b0389811660208085019182528486018781525f60608701818152608088018281524260a08a019081528d8452600886528a842099518a549089166001600160a01b0319918216178b55965160018b01805491909916971696909617909655915160028801559051600387018054955160ff166101000261ff00199215159290921661ffff199096169590951717909355905160049094019390935590815260099091529081208054929350906114fb836124fd565b90915550506001600160a01b0385165f908152600960205260408120805491611523836124fd565b909155505060018054905f611537836124fd565b919050555061154581611b7d565b506115508133611b8c565b5061155b8186611b8c565b506040518281526001600160a01b0386169033907fcef58d824d8549ba1b05c2ab5812613eef1ece320a5a3d6531cbb358b5fb9f1c90602001610e80565b60045460ff16156115bc5760405162461bcd60e51b81526004016107ac906124a4565b600c8360ff16106115df5760405162461bcd60e51b81526004016107ac906123cc565b60048260ff16106116245760405162461bcd60e51b815260206004820152600f60248201526e125b9d985b1a5908195b195b595b9d608a1b60448201526064016107ac565b60038160ff16106116695760405162461bcd60e51b815260206004820152600f60248201526e496e76616c6964207175616c69747960881b60448201526064016107ac565b335f9081526007602052604090206003015460ff16156116c45760405162461bcd60e51b815260206004820152601660248201527550726f66696c6520616c72656164792065786973747360501b60448201526064016107ac565b5f6116ce84611b6e565b90505f6116da84611b6e565b90505f6116e684611b6e565b6040805160a08101825285815260208082018681528284018581526001606085018181524260808701908152335f908152600790965296909420945185559151918401919091555160028301555160038201805460ff19169115159190911790559051600490910155905061175a83611b7d565b5061176482611b7d565b5061176e81611b7d565b506117798333611b8c565b506117848233611b8c565b5061178f8133611b8c565b5060405133907ff10ec97e920cde75887622583772c637595a40b1f7777c18e51ea36cd127475c905f90a2505050505050565b5f546001600160a01b031633146117eb5760405162461bcd60e51b81526004016107ac906123a4565b600280549082905560408051828152602081018490527f81a4fe1759d58af96859f5799571b46cb438e5215a188511956a062695eb027c910160405180910390a15050565b6004545f9060ff16156118555760405162461bcd60e51b81526004016107ac906124a4565b5f82815260086020526040902080546001600160a01b03166118b05760405162461bcd60e51b815260206004820152601460248201527313585d18da08191bd95cc81b9bdd08195e1a5cdd60621b60448201526064016107ac565b80546001600160a01b03163314806118d4575060018101546001600160a01b031633145b6118f05760405162461bcd60e51b81526004016107ac906123a4565b600381015460ff161561193e5760405162461bcd60e51b815260206004820152601660248201527514d8dbdc9948185b1c9958591e481c995d99585b195960521b60448201526064016107ac565b5f60065f815461194d906124fd565b91829055506040805160c0810182528281523360208083018281528385018a815242606086018181525f608088018181526002805460a08b019081528c8452600a8952928b902099518a5595516001808b0180546001600160a01b039093166001600160a01b03199093169290921790915594518987015591516003808a0191909155915160048901805491151560ff1992831617905590516005909801979097558a01805490961690911790945554845190815290810192909252929350869184917fa24e83c20f04c61bc3c0723ada6a82130aae83302e11749fb690e94e43c22329910160405180910390a49150505b919050565b905090565b5f546001600160a01b03163314611a725760405162461bcd60e51b81526004016107ac906123a4565b5f82815260086020526040902080546001600160a01b0316611acd5760405162461bcd60e51b815260206004820152601460248201527313585d18da08191bd95cc81b9bdd08195e1a5cdd60621b60448201526064016107ac565b600381015460ff16611b185760405162461bcd60e51b8152602060048201526014602482015273139bdd081c9958591e48199bdc881c995d99585b60621b60448201526064016107ac565b60038101805461ff00191661010060ff85169081029190911790915560405190815283907fe31c8f1463226f974347ee350a458c554258a8d622221fce911488a2755ed8a29060200160405180910390a2505050565b5f610dea8260ff166002611caf565b5f611b888230611d46565b5090565b5f611b978383611d46565b5090919050565b6001600160a01b038083165f908152600760205260408082209284168252812090919082611bcc6032611b6e565b90505f611be184600101548460010154611dbc565b90505f611c0082611bf26014611b6e565b611bfb5f611b6e565b611df1565b90505f611c1586600201548660020154611dbc565b90505f611c2682611bf2600f611b6e565b90505f611c39885f0154885f0154611dbc565b90505f611c4a82611bf2600a611b6e565b90505f611c578887611dfd565b9050611c638185611dfd565b9050611c6f8183611e2b565b90505f611c7a611e59565b90505f611c9082611c8b600f611b6e565b611e64565b9050611c9c8382611dfd565b9f9e505050505050505050505050505050565b5f8051602061258f83398151915254604051639cd07acb60e01b81525f915f805160206125af833981519152916001600160a01b0390911690639cd07acb90611cfe9087908790600401612535565b6020604051808303815f875af1158015611d1a573d5f803e3d5ffd5b505050506040513d601f19601f82011682018060405250810190611d3e9190612549565b949350505050565b5f5f805160206125af8339815191528054604051635ca4b5b160e11b8152600481018690526001600160a01b03858116602483015292935091169063b9496b62906044015f604051808303815f87803b158015611da1575f80fd5b505af1158015611db3573d5f803e3d5ffd5b50505050505050565b5f82611dce57611dcb5f611b6e565b92505b81611ddf57611ddc5f611b6e565b91505b611dea83835f611e92565b9392505050565b5f611d3e848484611f3f565b5f82611e0f57611e0c5f611b6e565b92505b81611e2057611e1d5f611b6e565b91505b611dea83835f611fd5565b5f82611e3d57611e3a5f611b6e565b92505b81611e4e57611e4b5f611b6e565b91505b611dea83835f612038565b5f611a44600261209b565b5f82611e7657611e735f611b6e565b92505b81611e8757611e845f611b6e565b91505b611dea83835f612128565b5f808215611ea55750600160f81b611ea8565b505f5b5f8051602061258f8339815191525460405163f77f3f1d60e01b81525f805160206125af833981519152916001600160a01b03169063f77f3f1d90611ef590899089908790600401612560565b6020604051808303815f875af1158015611f11573d5f803e3d5ffd5b505050506040513d601f19601f82011682018060405250810190611f359190612549565b9695505050505050565b5f805f805160206125af8339815191526001810154604051637702dcff60e01b81526004810188905260248101879052604481018690529192506001600160a01b031690637702dcff906064016020604051808303815f875af1158015611fa8573d5f803e3d5ffd5b505050506040513d601f19601f82011682018060405250810190611fcc9190612549565b95945050505050565b5f808215611fe85750600160f81b611feb565b505f5b5f8051602061258f8339815191525460405163022f65e760e31b81525f805160206125af833981519152916001600160a01b03169063117b2f3890611ef590899089908790600401612560565b5f80821561204b5750600160f81b61204e565b505f5b5f8051602061258f833981519152546040516303056db360e31b81525f805160206125af833981519152916001600160a01b03169063182b6d9890611ef590899089908790600401612560565b5f8051602061258f83398151915254604051636baeb74560e11b81525f915f805160206125af833981519152916001600160a01b039091169063d75d6e8a906120e8908690600401612580565b6020604051808303815f875af1158015612104573d5f803e3d5ffd5b505050506040513d601f19601f82011682018060405250810190611dea9190612549565b5f80821561213b5750600160f81b61213e565b505f5b5f8051602061258f8339815191525460405163d99882d560e01b81525f805160206125af833981519152916001600160a01b03169063d99882d590611ef590899089908790600401612560565b5f6020828403121561219b575f80fd5b5035919050565b80356001600160a01b0381168114611a3f575f80fd5b5f602082840312156121c8575f80fd5b611dea826121a2565b803560ff81168114611a3f575f80fd5b5f602082840312156121f1575f80fd5b611dea826121d1565b606081525f84518060608401525f5b818110156122265760208188018101516080868401015201612209565b505f608082850101526080601f19601f83011684010191505060ff8416602083015260ff83166040830152949350505050565b5f806040838503121561226a575f80fd5b612273836121a2565b9150612281602084016121a2565b90509250929050565b5f8083601f84011261229a575f80fd5b50813567ffffffffffffffff8111156122b1575f80fd5b6020830191508360208285010111156122c8575f80fd5b9250929050565b5f805f805f606086880312156122e3575f80fd5b85359450602086013567ffffffffffffffff80821115612301575f80fd5b61230d89838a0161228a565b90965094506040880135915080821115612325575f80fd5b506123328882890161228a565b969995985093965092949392505050565b5f805f60608486031215612355575f80fd5b61235e846121d1565b925061236c602085016121d1565b915061237a604085016121d1565b90509250925092565b5f8060408385031215612394575f80fd5b82359150612281602084016121d1565b6020808252600e908201526d139bdd08185d5d1a1bdc9a5e995960921b604082015260600190565b6020808252600e908201526d496e76616c6964207a6f6469616360901b604082015260600190565b634e487b7160e01b5f52603260045260245ffd5b634e487b7160e01b5f52601160045260245ffd5b81810381811115610dea57610dea612408565b634e487b7160e01b5f52603160045260245ffd5b81835281816020850137505f828201602090810191909152601f909101601f19169091010190565b606081525f61247e606083018789612443565b8281036020840152612491818688612443565b9150508260408301529695505050505050565b60208082526012908201527110dbdb9d1c9858dd081a5cc81c185d5cd95960721b604082015260600190565b6020808252601390820152725573657220686173206e6f2070726f66696c6560681b604082015260600190565b5f6001820161250e5761250e612408565b5060010190565b6054811061253157634e487b7160e01b5f52602160045260245ffd5b9052565b82815260408101611dea6020830184612515565b5f60208284031215612559575f80fd5b5051919050565b92835260208301919091526001600160f81b031916604082015260600190565b60208101610dea828461251556fe9e7b61f58c47dc699ac88507c4f5bb9f121c03808c5676a8078fe583e46497019e7b61f58c47dc699ac88507c4f5bb9f121c03808c5676a8078fe583e4649700a2646970667358221220ed936ef995eea10141d778eb3ef5fd68f48f78c8e539a852610ac7d2190430d464736f6c63430008180033",
  "linkReferences": {},
  "deployedLinkReferences": {}
}