{
  "_format": "hh-sol-artifact-1",
  "contractName": "AstralCompatibilityMock",
  "sourceName": "contracts/AstralCompatibilityMock.sol",
  "abi": [
    {
      "inputs": [],
      "stateMutability": "nonpayable",
      "type": "constructor"
    },
    {
      "anonymous": false,
      "inputs": [
        {
          "indexed": true,
          "internalType": "bytes32",
          "name": "matchId",
          "type": "bytes32"
        },
        {
          "indexed": false,
          "internalType": "uint8",
          "name": "score",
          "type": "uint8"
        }
      ],
      "name": "CompatibilityRevealed",
      "type": "event"
    },
    {
      "anonymous": false,
      "inputs": [
        {
          "indexed": true,
          "internalType": "address",
          "name": "user1",
          "type": "address"
        },
        {
          "indexed": true,
          "internalType": "address",
          "name": "user2",
          "type": "address"
        },
        {
          "indexed": false,
          "internalType": "bytes32",
          "name": "matchId",
          "type": "bytes32"
        }
      ],
      "name": "MatchRequested",
      "type": "event"
    },
    {
      "anonymous": false,
      "inputs": [
        {
          "indexed": true,
          "internalType": "address",
          "name": "user",
          "type": "address"
        }
      ],
      "name": "ProfileCreated",
      "type": "event"
    },
    {
      "inputs": [
        {
          "internalType": "uint8",
          "name": "_zodiac",
          "type": "uint8"
        },
        {
          "internalType": "uint8",
          "name": "_element",
          "type": "uint8"
        },
        {
          "internalType": "uint8",
          "name": "_quality",
          "type": "uint8"
        }
      ],
      "name": "createProfile",
      "outputs": [],
      "stateMutability": "nonpayable",
      "type": "function"
    },
    {
      "inputs": [
        {
          "internalType": "address",
          "name": "_user1",
          "type": "address"
        },
        {
          "internalType": "address",
          "name": "_user2",
          "type": "address"
        }
      ],
      "name": "generateMatchId",
      "outputs": [
        {
          "internalType": "bytes32",
          "name": "",
          "type": "bytes32"
        }
      ],
      "stateMutability": "pure",
      "type": "function"
    },
    {
      "inputs": [
        {
          "internalType": "bytes32",
          "name": "_matchId",
          "type": "bytes32"
        }
      ],
      "name": "getMatchInfo",
      "outputs": [
        {
          "internalType": "address",
          "name": "user1",
          "type": "address"
        },
        {
          "internalType": "address",
          "name": "user2",
          "type": "address"
        },
        {
          "internalType": "bool",
          "name": "isRevealed",
          "type": "bool"
        },
        {
          "internalType": "uint8",
          "name": "publicScore",
          "type": "uint8"
        },
        {
          "internalType": "uint256",
          "name": "matchTime",
          "type": "uint256"
        }
      ],
      "stateMutability": "view",
      "type": "function"
    },
    {
      "inputs": [
        {
          "internalType": "address",
          "name": "_user",
          "type": "address"
        }
      ],
      "name": "getUserProfileStatus",
      "outputs": [
        {
          "internalType": "bool",
          "name": "hasProfile",
          "type": "bool"
        },
        {
          "internalType": "uint256",
          "name": "timestamp",
          "type": "uint256"
        }
      ],
      "stateMutability": "view",
      "type": "function"
    },
    {
      "inputs": [
        {
          "internalType": "address",
          "name": "_user",
          "type": "address"
        }
      ],
      "name": "getUserStats",
      "outputs": [
        {
          "internalType": "uint256",
          "name": "matchCount",
          "type": "uint256"
        }
      ],
      "stateMutability": "view",
      "type": "function"
    },
    {
      "inputs": [
        {
          "internalType": "uint8",
          "name": "_zodiac",
          "type": "uint8"
        }
      ],
      "name": "getZodiacInfo",
      "outputs": [
        {
          "internalType": "string",
          "name": "name",
          "type": "string"
        },
        {
          "internalType": "uint8",
          "name": "element",
          "type": "uint8"
        },
        {
          "internalType": "uint8",
          "name": "quality",
          "type": "uint8"
        }
      ],
      "stateMutability": "pure",
      "type": "function"
    },
    {
      "inputs": [
        {
          "internalType": "bytes32",
          "name": "",
          "type": "bytes32"
        }
      ],
      "name": "matches",
      "outputs": [
        {
          "internalType": "address",
          "name": "user1",
          "type": "address"
        },
        {
          "internalType": "address",
          "name": "user2",
          "type": "address"
        },
        {
          "internalType": "uint8",
          "name": "compatibilityScore",
          "type": "uint8"
        },
        {
          "internalType": "bool",
          "name": "isRevealed",
          "type": "bool"
        },
        {
          "internalType": "uint8",
          "name": "publicScore",
          "type": "uint8"
        },
        {
          "internalType": "uint256",
          "name": "matchTime",
          "type": "uint256"
        }
      ],
      "stateMutability": "view",
      "type": "function"
    },
    {
      "inputs": [],
      "name": "owner",
      "outputs": [
        {
          "internalType": "address",
          "name": "",
          "type": "address"
        }
      ],
      "stateMutability": "view",
      "type": "function"
    },
    {
      "inputs": [
        {
          "internalType": "bytes32",
          "name": "matchId",
          "type": "bytes32"
        },
        {
          "internalType": "uint8",
          "name": "decryptedValue",
          "type": "uint8"
        }
      ],
      "name": "processScoreReveal",
      "outputs": [],
      "stateMutability": "nonpayable",
      "type": "function"
    },
    {
      "inputs": [
        {
          "internalType": "address",
          "name": "_partner",
          "type": "address"
        }
      ],
      "name": "requestCompatibilityMatch",
      "outputs": [],
      "stateMutability": "nonpayable",
      "type": "function"
    },
    {
      "inputs": [
        {
          "internalType": "bytes32",
          "name": "_matchId",
          "type": "bytes32"
        }
      ],
      "name": "revealCompatibilityScore",
      "outputs": [],
      "stateMutability": "nonpayable",
      "type": "function"
    },
    {
      "inputs": [],
      "name": "totalMatches",
      "outputs": [
        {
          "internalType": "uint256",
          "name": "",
          "type": "uint256"
        }
      ],
      "stateMutability": "view",
      "type": "function"
    },
    {
      "inputs": [
        {
          "internalType": "uint8",
          "name": "_zodiac",
          "type": "uint8"
        },
        {
          "internalType": "uint8",
          "name": "_element",
          "type": "uint8"
        },
        {
          "internalType": "uint8",
          "name": "_quality",
          "type": "uint8"
        }
      ],
      "name": "updateProfile",
      "outputs": [],
      "stateMutability": "nonpayable",
      "type": "function"
    },
    {
      "inputs": [
        {
          "internalType": "address",
          "name": "",
          "type": "address"
        }
      ],
      "name": "userMatchCount",
      "outputs": [
        {
          "internalType": "uint256",
          "name": "",
          "type": "uint256"
        }
      ],
      "stateMutability": "view",
      "type": "function"
    },
    {
      "inputs": [
        {
          "internalType": "address",
          "name": "",
          "type": "address"
        }
      ],
      "name": "userProfiles",
      "outputs": [
        {
          "internalType": "uint8",
          "name": "zodiac",
          "type": "uint8"
        },
        {
          "internalType": "uint8",
          "name": "element",
          "type": "uint8"
        },
        {
          "internalType": "uint8",
          "name": "quality",
          "type": "uint8"
        },
        {
          "internalType": "bool",
          "name": "hasProfile",
          "type": "bool"
        },
        {
          "internalType": "uint256",
          "name": "timestamp",
          "type": "uint256"
        }
      ],
      "stateMutability": "view",
      "type": "function"
    }
  ],
  "bytecode": "0x608060405234801562000010575f80fd5b506200002d6719644917536ca76260c01b620000b160201b60201c565b6200004967ec7c2ca5c946df6560c01b620000b160201b60201c565b335f806101000a81548173ffffffffffffffffffffffffffffffffffffffff021916908373ffffffffffffffffffffffffffffffffffffffff160217905550620000a467f53f5a94a752220860c01b620000b160201b60201c565b5f600181905550620000b4565b50565b61355680620000c25f395ff3fe608060405234801561000f575f80fd5b50600436106100f3575f3560e01c80636b9e9680116100955780639fe9ada3116100645780639fe9ada3146102c6578063b2bef0b0146102fb578063d833a51a14610317578063f424939f14610333576100f3565b80636b9e9680146102405780637a501d74146102705780638ab92f481461028c5780638da5cb5b146102a8576100f3565b8063332d56d7116100d1578063332d56d7146101765780634e43603a146101aa5780634efe4f6a146101da5780636b8a49281461020c576100f3565b80630821d0ef146100f75780632a5b1451146101275780632c2c4f9c14610145575b5f80fd5b610111600480360381019061010c91906129fe565b61034f565b60405161011e9190612a41565b60405180910390f35b61012f610364565b60405161013c9190612a41565b60405180910390f35b61015f600480360381019061015a91906129fe565b61036a565b60405161016d929190612a74565b60405180910390f35b610190600480360381019061018b91906129fe565b610430565b6040516101a1959493929190612ab6565b60405180910390f35b6101c460048036038101906101bf91906129fe565b610492565b6040516101d19190612a41565b60405180910390f35b6101f460048036038101906101ef9190612b31565b610514565b60405161020393929190612be6565b60405180910390f35b61022660048036038101906102219190612c55565b610a97565b604051610237959493929190612c8f565b60405180910390f35b61025a60048036038101906102559190612ce0565b610b98565b6040516102679190612d2d565b60405180910390f35b61028a60048036038101906102859190612d46565b610ce3565b005b6102a660048036038101906102a191906129fe565b611101565b005b6102b0611891565b6040516102bd9190612d96565b60405180910390f35b6102e060048036038101906102db9190612c55565b6118b4565b6040516102f296959493929190612daf565b60405180910390f35b61031560048036038101906103109190612d46565b611951565b005b610331600480360381019061032c9190612c55565b611d82565b005b61034d60048036038101906103489190612e0e565b6121ad565b005b6004602052805f5260405f205f915090505481565b60015481565b5f8061038067f1093bc721148be660c01b612541565b610394676eb988029f549c0e60c01b612541565b6103a8674bec3473ef83351960c01b612541565b5f60025f8573ffffffffffffffffffffffffffffffffffffffff1673ffffffffffffffffffffffffffffffffffffffff1681526020019081526020015f2090506103fc6736552b07c31f3b9960c01b612541565b6104106741ec212e7e10fb7e60c01b612541565b805f0160039054906101000a900460ff1681600101549250925050915091565b6002602052805f5260405f205f91509050805f015f9054906101000a900460ff1690805f0160019054906101000a900460ff1690805f0160029054906101000a900460ff1690805f0160039054906101000a900460ff16908060010154905085565b5f6104a7677e63d883887dad8360c01b612541565b6104bb67d4c5e425da2447e760c01b612541565b6104cf672d1afdc8873ac80b60c01b612541565b60045f8373ffffffffffffffffffffffffffffffffffffffff1673ffffffffffffffffffffffffffffffffffffffff1681526020019081526020015f20549050919050565b60605f8061052c672bc2ac9fb6610e7c60c01b612541565b61054067b4a0093f258dd56b60c01b612541565b6105546785e89ca21132e71760c01b612541565b61056867cd5b8b54f30558b660c01b612541565b600c8460ff16106105ae576040517f08c379a00000000000000000000000000000000000000000000000000000000081526004016105a590612e96565b60405180910390fd5b6105c2675aac162a7d2732a060c01b612541565b6105d667ce1ee55fe6acfb8260c01b612541565b6105ea67fe13dcbfd71b258260c01b612541565b5f6040518061018001604052806040518060400160405280600581526020017f417269657300000000000000000000000000000000000000000000000000000081525081526020016040518060400160405280600681526020017f546175727573000000000000000000000000000000000000000000000000000081525081526020016040518060400160405280600681526020017f47656d696e69000000000000000000000000000000000000000000000000000081525081526020016040518060400160405280600681526020017f43616e636572000000000000000000000000000000000000000000000000000081525081526020016040518060400160405280600381526020017f4c656f000000000000000000000000000000000000000000000000000000000081525081526020016040518060400160405280600581526020017f566972676f00000000000000000000000000000000000000000000000000000081525081526020016040518060400160405280600581526020017f4c6962726100000000000000000000000000000000000000000000000000000081525081526020016040518060400160405280600781526020017f53636f7270696f0000000000000000000000000000000000000000000000000081525081526020016040518060400160405280600b81526020017f536167697474617269757300000000000000000000000000000000000000000081525081526020016040518060400160405280600981526020017f4361707269636f726e000000000000000000000000000000000000000000000081525081526020016040518060400160405280600881526020017f417175617269757300000000000000000000000000000000000000000000000081525081526020016040518060400160405280600681526020017f506973636573000000000000000000000000000000000000000000000000000081525081525090506108cf67b45d30aa9dd7815860c01b612541565b6108e367f061f31aa492543160c01b612541565b5f6040518061018001604052805f60ff168152602001600160ff168152602001600260ff168152602001600360ff1681526020015f60ff168152602001600160ff168152602001600260ff168152602001600360ff1681526020015f60ff168152602001600160ff168152602001600260ff168152602001600360ff16815250905061097967c23906fdefe56e9960c01b612541565b61098d67426a83be4f21394460c01b612541565b5f6040518061018001604052805f60ff168152602001600160ff168152602001600260ff1681526020015f60ff168152602001600160ff168152602001600260ff1681526020015f60ff168152602001600160ff168152602001600260ff1681526020015f60ff168152602001600160ff168152602001600260ff168152509050610a2267dac56565f88f6eb860c01b612541565b610a366746b0c4eafec10a5b60c01b612541565b828760ff16600c8110610a4c57610a4b612eb4565b5b6020020151828860ff16600c8110610a6757610a66612eb4565b5b6020020151828960ff16600c8110610a8257610a81612eb4565b5b60200201519550955095505050509193909250565b5f805f805f610ab0670605f119045a1f1b60c01b612541565b610ac46795e1602ec1d9659c60c01b612541565b610ad867a8d6da4d0458fd9460c01b612541565b5f60035f8881526020019081526020015f209050610b0067a4a6db27d36480f760c01b612541565b610b14678e28fa88edcd27a860c01b612541565b805f015f9054906101000a900473ffffffffffffffffffffffffffffffffffffffff16816001015f9054906101000a900473ffffffffffffffffffffffffffffffffffffffff168260010160159054906101000a900460ff168360010160169054906101000a900460ff168460020154955095509550955095505091939590929450565b5f610bad6740a434cb98ca36ba60c01b612541565b610bc167d35a7c5da1baa30460c01b612541565b610bd567797acf511b2daf7d60c01b612541565b8173ffffffffffffffffffffffffffffffffffffffff168373ffffffffffffffffffffffffffffffffffffffff161015610c7557610c1d67500e42beace7647f60c01b612541565b610c3167c547c9912092d44260c01b612541565b610c4567e58d5eb58c0b2ddd60c01b612541565b8282604051602001610c58929190612f26565b604051602081830303815290604052805190602001209050610cdd565b610c8967f1b652a073868f9460c01b612541565b610c9d672c9e31297bf19e5a60c01b612541565b610cb167b381f9484deb1dc660c01b612541565b8183604051602001610cc4929190612f26565b6040516020818303038152906040528051906020012090505b92915050565b610cf7673f086c52ed3eaf7860c01b612541565b33610d0c67b39a43ad2d9af25e60c01b612541565b610d206709b7bf092e2551a160c01b612541565b610d34671cb9e8cf20e579e860c01b612541565b610d48679384e3c726dfee8360c01b612541565b60025f8273ffffffffffffffffffffffffffffffffffffffff1673ffffffffffffffffffffffffffffffffffffffff1681526020019081526020015f205f0160039054906101000a900460ff16610dd4576040517f08c379a0000000000000000000000000000000000000000000000000000000008152600401610dcb90612f9b565b60405180910390fd5b610de867e76c18628e8a153a60c01b612541565b610dfc67c86868c69a24e19960c01b612541565b610e106758981a766496af1660c01b612541565b610e2467b3ccd0737fd3545760c01b612541565b610e386716ada550b7c6cd5960c01b612541565b610e4c676aa49028bf8b3d5760c01b612541565b610e60676f061724825ebae360c01b612541565b600c8460ff1610610ea6576040517f08c379a0000000000000000000000000000000000000000000000000000000008152600401610e9d90612e96565b60405180910390fd5b610eba67bdf391e64592aea360c01b612541565b610ece67f7d596dea6d49f2c60c01b612541565b610ee2671fdf7c9c8ed6088860c01b612541565b610ef6678e47c1de1236d70360c01b612541565b60048360ff1610610f3c576040517f08c379a0000000000000000000000000000000000000000000000000000000008152600401610f3390613003565b60405180910390fd5b610f506782f4fb745e7d6cf360c01b612541565b610f6467718f2fe2f65a73b960c01b612541565b610f78679b2e18aa75099c1760c01b612541565b610f8c67b633770b3371500060c01b612541565b60038260ff1610610fd2576040517f08c379a0000000000000000000000000000000000000000000000000000000008152600401610fc99061306b565b60405180910390fd5b610fe6676959d96f9dce214c60c01b612541565b610ffa67d9fe2aa62a727a4260c01b612541565b61100e6794430bbe2fbf0bfd60c01b612541565b5f60025f3373ffffffffffffffffffffffffffffffffffffffff1673ffffffffffffffffffffffffffffffffffffffff1681526020019081526020015f2090506110626719ecbc8f9b06f86060c01b612541565b84815f015f6101000a81548160ff021916908360ff16021790555061109167aeb9298b0055ca2860c01b612541565b83815f0160016101000a81548160ff021916908360ff1602179055506110c167f7ec06d9b3fb587460c01b612541565b82815f0160026101000a81548160ff021916908360ff1602179055506110f16718b87f850c90634260c01b612541565b4281600101819055505050505050565b61111567f642b47a05303a9460c01b612541565b3361112a67b39a43ad2d9af25e60c01b612541565b61113e6709b7bf092e2551a160c01b612541565b611152671cb9e8cf20e579e860c01b612541565b611166679384e3c726dfee8360c01b612541565b60025f8273ffffffffffffffffffffffffffffffffffffffff1673ffffffffffffffffffffffffffffffffffffffff1681526020019081526020015f205f0160039054906101000a900460ff166111f2576040517f08c379a00000000000000000000000000000000000000000000000000000000081526004016111e990612f9b565b60405180910390fd5b61120667e76c18628e8a153a60c01b612541565b61121a67c86868c69a24e19960c01b612541565b61122e67bb90b3a375b2412860c01b612541565b61124267d20e8eea9365aba260c01b612541565b8161125767b39a43ad2d9af25e60c01b612541565b61126b6709b7bf092e2551a160c01b612541565b61127f671cb9e8cf20e579e860c01b612541565b611293679384e3c726dfee8360c01b612541565b60025f8273ffffffffffffffffffffffffffffffffffffffff1673ffffffffffffffffffffffffffffffffffffffff1681526020019081526020015f205f0160039054906101000a900460ff1661131f576040517f08c379a000000000000000000000000000000000000000000000000000000000815260040161131690612f9b565b60405180910390fd5b61133367e76c18628e8a153a60c01b612541565b61134767c86868c69a24e19960c01b612541565b61135b67ea01992784a33b2760c01b612541565b61136f6748ac3bf272a01f4c60c01b612541565b61138367655e8f4c31fb949f60c01b612541565b6113976723368a4a211bd3d360c01b612541565b6113ab674f56f1b759a1d97860c01b612541565b3373ffffffffffffffffffffffffffffffffffffffff168373ffffffffffffffffffffffffffffffffffffffff1603611419576040517f08c379a0000000000000000000000000000000000000000000000000000000008152600401611410906130d3565b60405180910390fd5b61142d6703fde43dbd3df75e60c01b612541565b611441674914cb8de8e2ef8460c01b612541565b61145567c09c7be74756d72f60c01b612541565b5f6114603385610b98565b9050611476670f65780dbb77434c60c01b612541565b61148a6783fd12d72b511f1b60c01b612541565b61149e6726f24ab329523a7060c01b612541565b5f73ffffffffffffffffffffffffffffffffffffffff1660035f8381526020019081526020015f205f015f9054906101000a900473ffffffffffffffffffffffffffffffffffffffff1673ffffffffffffffffffffffffffffffffffffffff161461153e576040517f08c379a00000000000000000000000000000000000000000000000000000000081526004016115359061313b565b60405180910390fd5b6115526715375771089046ca60c01b612541565b611566672c48d0b72fa3d2f560c01b612541565b61157a676ea3051034a2740360c01b612541565b5f6115853386612544565b905061159b67977fd4e1f637e12e60c01b612541565b6040518060c001604052803373ffffffffffffffffffffffffffffffffffffffff1681526020018673ffffffffffffffffffffffffffffffffffffffff1681526020018260ff1681526020015f151581526020015f60ff1681526020014281525060035f8481526020019081526020015f205f820151815f015f6101000a81548173ffffffffffffffffffffffffffffffffffffffff021916908373ffffffffffffffffffffffffffffffffffffffff1602179055506020820151816001015f6101000a81548173ffffffffffffffffffffffffffffffffffffffff021916908373ffffffffffffffffffffffffffffffffffffffff16021790555060408201518160010160146101000a81548160ff021916908360ff16021790555060608201518160010160156101000a81548160ff02191690831515021790555060808201518160010160166101000a81548160ff021916908360ff16021790555060a0820151816002015590505061171a67fd33d143fbddb29760c01b612541565b60045f3373ffffffffffffffffffffffffffffffffffffffff1673ffffffffffffffffffffffffffffffffffffffff1681526020019081526020015f205f81548092919061176790613186565b919050555061178067196c48d06057d0df60c01b612541565b60045f8673ffffffffffffffffffffffffffffffffffffffff1673ffffffffffffffffffffffffffffffffffffffff1681526020019081526020015f205f8154809291906117cd90613186565b91905055506117e6674513991b871cdc1f60c01b612541565b60015f8154809291906117f890613186565b9190505550611811674722d0826d944d5360c01b612541565b611825671457b1567edd20d560c01b612541565b8473ffffffffffffffffffffffffffffffffffffffff163373ffffffffffffffffffffffffffffffffffffffff167fcef58d824d8549ba1b05c2ab5812613eef1ece320a5a3d6531cbb358b5fb9f1c846040516118829190612d2d565b60405180910390a35050505050565b5f8054906101000a900473ffffffffffffffffffffffffffffffffffffffff1681565b6003602052805f5260405f205f91509050805f015f9054906101000a900473ffffffffffffffffffffffffffffffffffffffff1690806001015f9054906101000a900473ffffffffffffffffffffffffffffffffffffffff16908060010160149054906101000a900460ff16908060010160159054906101000a900460ff16908060010160169054906101000a900460ff16908060020154905086565b61196567a8103f67826dbc6b60c01b612541565b611979678531dee21d9b8f4f60c01b612541565b61198d673ada3a6fb6273b1c60c01b612541565b6119a167577b6b412678ac4660c01b612541565b600c8360ff16106119e7576040517f08c379a00000000000000000000000000000000000000000000000000000000081526004016119de90612e96565b60405180910390fd5b6119fb67ce5afa0b87cc0b0d60c01b612541565b611a0f673216f95171aeae3d60c01b612541565b611a23672f3d5b451f88b96360c01b612541565b611a3767b5f1119dde41885360c01b612541565b60048260ff1610611a7d576040517f08c379a0000000000000000000000000000000000000000000000000000000008152600401611a7490613003565b60405180910390fd5b611a9167417ee1744e10cea160c01b612541565b611aa5674ac88641561f58ad60c01b612541565b611ab9676b537425813d629160c01b612541565b611acd67810dadb981b7cb0a60c01b612541565b60038160ff1610611b13576040517f08c379a0000000000000000000000000000000000000000000000000000000008152600401611b0a9061306b565b60405180910390fd5b611b27675838d59dab9b9e7e60c01b612541565b611b3b6794c7536ef663308c60c01b612541565b611b4f6792fc4da51a39850e60c01b612541565b611b6367022e301eda00796460c01b612541565b60025f3373ffffffffffffffffffffffffffffffffffffffff1673ffffffffffffffffffffffffffffffffffffffff1681526020019081526020015f205f0160039054906101000a900460ff1615611bf0576040517f08c379a0000000000000000000000000000000000000000000000000000000008152600401611be790613217565b60405180910390fd5b611c046729df8f6d219e6daf60c01b612541565b611c186707c724376d006a0f60c01b612541565b6040518060a001604052808460ff1681526020018360ff1681526020018260ff1681526020016001151581526020014281525060025f3373ffffffffffffffffffffffffffffffffffffffff1673ffffffffffffffffffffffffffffffffffffffff1681526020019081526020015f205f820151815f015f6101000a81548160ff021916908360ff1602179055506020820151815f0160016101000a81548160ff021916908360ff1602179055506040820151815f0160026101000a81548160ff021916908360ff1602179055506060820151815f0160036101000a81548160ff02191690831515021790555060808201518160010155905050611d266705af53e5c912dc6160c01b612541565b611d3a67eb9b7097e7a047a860c01b612541565b3373ffffffffffffffffffffffffffffffffffffffff167ff10ec97e920cde75887622583772c637595a40b1f7777c18e51ea36cd127475c60405160405180910390a2505050565b611d9667a709ef7b23f00f7760c01b612541565b611daa677575a6116bf299b660c01b612541565b611dbe6702d6769511a38a4e60c01b612541565b5f60035f8381526020019081526020015f209050611de6677bb7b0545fe2e65960c01b612541565b611dfa67cd6edaff919754f160c01b612541565b611e0e6702b5525637501ca060c01b612541565b5f73ffffffffffffffffffffffffffffffffffffffff16815f015f9054906101000a900473ffffffffffffffffffffffffffffffffffffffff1673ffffffffffffffffffffffffffffffffffffffff1603611e9e576040517f08c379a0000000000000000000000000000000000000000000000000000000008152600401611e959061327f565b60405180910390fd5b611eb267fbdf019f12887b6560c01b612541565b611ec6672e49b339241b356f60c01b612541565b611eda67edc3a1836c0118d060c01b612541565b611eee6791bc58679464e14c60c01b612541565b805f015f9054906101000a900473ffffffffffffffffffffffffffffffffffffffff1673ffffffffffffffffffffffffffffffffffffffff163373ffffffffffffffffffffffffffffffffffffffff16148015611f5b5750611f5a67af632e091cc8cf4160c01b612996565b5b80611fd05750806001015f9054906101000a900473ffffffffffffffffffffffffffffffffffffffff1673ffffffffffffffffffffffffffffffffffffffff163373ffffffffffffffffffffffffffffffffffffffff16148015611fcf5750611fce67bfe8de683612575560c01b612996565b5b5b61200f576040517f08c379a0000000000000000000000000000000000000000000000000000000008152600401612006906132e7565b60405180910390fd5b61202367c67660bf7c49989d60c01b612541565b612037674e769e7759e6b84660c01b612541565b61204b67477eaf9198b3100160c01b612541565b61205f6722c00387d8ca185860c01b612541565b8060010160159054906101000a900460ff16156120b1576040517f08c379a00000000000000000000000000000000000000000000000000000000081526004016120a89061334f565b60405180910390fd5b6120c5672269f0343781522360c01b612541565b6120d9676171dc36d92563b460c01b612541565b60018160010160156101000a81548160ff02191690831515021790555061210a67b1fcdd93e5e4dc8160c01b612541565b8060010160149054906101000a900460ff168160010160166101000a81548160ff021916908360ff16021790555061214c6774e57530ec8e1d9560c01b612541565b6121606774dcd783ff1f550e60c01b612541565b817fe31c8f1463226f974347ee350a458c554258a8d622221fce911488a2755ed8a28260010160149054906101000a900460ff166040516121a1919061336d565b60405180910390a25050565b6121c16721f8399962786ccc60c01b612541565b6121d567b866121116f4364660c01b612541565b6121e967a0cc84e76b28243060c01b612541565b6121fd674c0f063a5e61678660c01b612541565b61221167961e67f2fa5d1a7f60c01b612541565b5f8054906101000a900473ffffffffffffffffffffffffffffffffffffffff1673ffffffffffffffffffffffffffffffffffffffff163373ffffffffffffffffffffffffffffffffffffffff161461229e576040517f08c379a0000000000000000000000000000000000000000000000000000000008152600401612295906132e7565b60405180910390fd5b6122b2678b4cf24d0a1918d560c01b612541565b6122c66729c4742eb4e5013660c01b612541565b6122da67ce0712294337e9fa60c01b612541565b6122ee67427c523d90754f9f60c01b612541565b612302674b44315497db073f60c01b612541565b61231667d4582a1062909f9460c01b612541565b5f60035f8481526020019081526020015f20905061233e6763c9ccc19bda94d060c01b612541565b61235267121cb6694cb1910f60c01b612541565b61236667412eb9efc7f7aed460c01b612541565b5f73ffffffffffffffffffffffffffffffffffffffff16815f015f9054906101000a900473ffffffffffffffffffffffffffffffffffffffff1673ffffffffffffffffffffffffffffffffffffffff16036123f6576040517f08c379a00000000000000000000000000000000000000000000000000000000081526004016123ed9061327f565b60405180910390fd5b61240a6706a5b4d2f2332fd160c01b612541565b61241e67ba6d49b6d2b6119560c01b612541565b612432675aa9c457e3f130fe60c01b612541565b61244667fc4a2ea3b81eaef060c01b612541565b8060010160159054906101000a900460ff16612497576040517f08c379a000000000000000000000000000000000000000000000000000000000815260040161248e906133d0565b60405180910390fd5b6124ab67dff425c2e3aa9a9060c01b612541565b6124bf6761ab8294ea5d2fc660c01b612541565b818160010160166101000a81548160ff021916908360ff1602179055506124f0674f904bdda0dcf4bf60c01b612541565b61250467b0938b12935e6a1960c01b612541565b827fe31c8f1463226f974347ee350a458c554258a8d622221fce911488a2755ed8a283604051612534919061336d565b60405180910390a2505050565b50565b5f61255967d3a46d09de32368d60c01b612541565b61256d67025ef74f045d17a760c01b612541565b61258167499971dc682cf54a60c01b612541565b5f60025f8573ffffffffffffffffffffffffffffffffffffffff1673ffffffffffffffffffffffffffffffffffffffff1681526020019081526020015f2090506125d5670518b7db25a439ab60c01b612541565b6125e967e9cdd9a0d0addd3660c01b612541565b5f60025f8573ffffffffffffffffffffffffffffffffffffffff1673ffffffffffffffffffffffffffffffffffffffff1681526020019081526020015f20905061263d67b6d613c6a001520160c01b612541565b61265167667a75d4a208603760c01b612541565b5f6032905061266a677db3a21fd5aee0c660c01b612541565b61267e676876f3cf334983bc60c01b612541565b815f0160019054906101000a900460ff1660ff16835f0160019054906101000a900460ff1660ff16036126e7576126bf672eec1057afac86a060c01b612541565b6126d367bd352acc0a48c58f60c01b612541565b6014816126e091906133ee565b90506126fc565b6126fb679342872938b0bcb760c01b612541565b5b61271067c5c35a0e1968a96160c01b612541565b6127246751d4d47bdb1f648160c01b612541565b815f0160029054906101000a900460ff1660ff16835f0160029054906101000a900460ff1660ff160361278d57612765672590a5a558bc474660c01b612541565b612779677042ee14fe3007de60c01b612541565b600f8161278691906133ee565b90506127a2565b6127a1673e9c7b4a73b198a260c01b612541565b5b6127b6674006b44497b9fec560c01b612541565b6127ca67a9d2c57212a9a61560c01b612541565b815f015f9054906101000a900460ff1660ff16835f015f9054906101000a900460ff1660ff16036128315761280967a03e009abb2dfeb660c01b612541565b61281d679e53655796c04a6a60c01b612541565b600a8161282a9190613422565b9050612846565b61284567ac272b107e0bc0b660c01b612541565b5b61285a67ed00cb3cdce8e1f760c01b612541565b61286e67d60efde3b24c99a360c01b612541565b5f424488886040516020016128869493929190613476565b604051602081830303815290604052805190602001205f1c90506128b4671db1c8117245888b60c01b612541565b6128c867b2c528bc55fcdfb460c01b612541565b5f6010826128d691906134f0565b90506128ec6790ff9770774f47d360c01b612541565b80836128f891906133ee565b925061290e677e8e9ad2c54cf0aa60c01b612541565b61292267ecc647fae6ee664d60c01b612541565b60648360ff16111561294b57612942678b8d45c5068396e160c01b612541565b60649250612960565b61295f6755269548d0d6e91760c01b612541565b5b61297467fa9fd3d68a688ef860c01b612541565b61298867e687890f45ecfab360c01b612541565b829550505050505092915050565b5f60019050919050565b5f80fd5b5f73ffffffffffffffffffffffffffffffffffffffff82169050919050565b5f6129cd826129a4565b9050919050565b6129dd816129c3565b81146129e7575f80fd5b50565b5f813590506129f8816129d4565b92915050565b5f60208284031215612a1357612a126129a0565b5b5f612a20848285016129ea565b91505092915050565b5f819050919050565b612a3b81612a29565b82525050565b5f602082019050612a545f830184612a32565b92915050565b5f8115159050919050565b612a6e81612a5a565b82525050565b5f604082019050612a875f830185612a65565b612a946020830184612a32565b9392505050565b5f60ff82169050919050565b612ab081612a9b565b82525050565b5f60a082019050612ac95f830188612aa7565b612ad66020830187612aa7565b612ae36040830186612aa7565b612af06060830185612a65565b612afd6080830184612a32565b9695505050505050565b612b1081612a9b565b8114612b1a575f80fd5b50565b5f81359050612b2b81612b07565b92915050565b5f60208284031215612b4657612b456129a0565b5b5f612b5384828501612b1d565b91505092915050565b5f81519050919050565b5f82825260208201905092915050565b5f5b83811015612b93578082015181840152602081019050612b78565b5f8484015250505050565b5f601f19601f8301169050919050565b5f612bb882612b5c565b612bc28185612b66565b9350612bd2818560208601612b76565b612bdb81612b9e565b840191505092915050565b5f6060820190508181035f830152612bfe8186612bae565b9050612c0d6020830185612aa7565b612c1a6040830184612aa7565b949350505050565b5f819050919050565b612c3481612c22565b8114612c3e575f80fd5b50565b5f81359050612c4f81612c2b565b92915050565b5f60208284031215612c6a57612c696129a0565b5b5f612c7784828501612c41565b91505092915050565b612c89816129c3565b82525050565b5f60a082019050612ca25f830188612c80565b612caf6020830187612c80565b612cbc6040830186612a65565b612cc96060830185612aa7565b612cd66080830184612a32565b9695505050505050565b5f8060408385031215612cf657612cf56129a0565b5b5f612d03858286016129ea565b9250506020612d14858286016129ea565b9150509250929050565b612d2781612c22565b82525050565b5f602082019050612d405f830184612d1e565b92915050565b5f805f60608486031215612d5d57612d5c6129a0565b5b5f612d6a86828701612b1d565b9350506020612d7b86828701612b1d565b9250506040612d8c86828701612b1d565b9150509250925092565b5f602082019050612da95f830184612c80565b92915050565b5f60c082019050612dc25f830189612c80565b612dcf6020830188612c80565b612ddc6040830187612aa7565b612de96060830186612a65565b612df66080830185612aa7565b612e0360a0830184612a32565b979650505050505050565b5f8060408385031215612e2457612e236129a0565b5b5f612e3185828601612c41565b9250506020612e4285828601612b1d565b9150509250929050565b7f496e76616c6964207a6f646961630000000000000000000000000000000000005f82015250565b5f612e80600e83612b66565b9150612e8b82612e4c565b602082019050919050565b5f6020820190508181035f830152612ead81612e74565b9050919050565b7f4e487b71000000000000000000000000000000000000000000000000000000005f52603260045260245ffd5b5f8160601b9050919050565b5f612ef782612ee1565b9050919050565b5f612f0882612eed565b9050919050565b612f20612f1b826129c3565b612efe565b82525050565b5f612f318285612f0f565b601482019150612f418284612f0f565b6014820191508190509392505050565b7f5573657220686173206e6f2070726f66696c65000000000000000000000000005f82015250565b5f612f85601383612b66565b9150612f9082612f51565b602082019050919050565b5f6020820190508181035f830152612fb281612f79565b9050919050565b7f496e76616c696420656c656d656e7400000000000000000000000000000000005f82015250565b5f612fed600f83612b66565b9150612ff882612fb9565b602082019050919050565b5f6020820190508181035f83015261301a81612fe1565b9050919050565b7f496e76616c6964207175616c69747900000000000000000000000000000000005f82015250565b5f613055600f83612b66565b915061306082613021565b602082019050919050565b5f6020820190508181035f83015261308281613049565b9050919050565b7f43616e6e6f74206d61746368207769746820796f757273656c660000000000005f82015250565b5f6130bd601a83612b66565b91506130c882613089565b602082019050919050565b5f6020820190508181035f8301526130ea816130b1565b9050919050565b7f4d6174636820616c7265616479206578697374730000000000000000000000005f82015250565b5f613125601483612b66565b9150613130826130f1565b602082019050919050565b5f6020820190508181035f83015261315281613119565b9050919050565b7f4e487b71000000000000000000000000000000000000000000000000000000005f52601160045260245ffd5b5f61319082612a29565b91507fffffffffffffffffffffffffffffffffffffffffffffffffffffffffffffffff82036131c2576131c1613159565b5b600182019050919050565b7f50726f66696c6520616c726561647920657869737473000000000000000000005f82015250565b5f613201601683612b66565b915061320c826131cd565b602082019050919050565b5f6020820190508181035f83015261322e816131f5565b9050919050565b7f4d6174636820646f6573206e6f742065786973740000000000000000000000005f82015250565b5f613269601483612b66565b915061327482613235565b602082019050919050565b5f6020820190508181035f8301526132968161325d565b9050919050565b7f4e6f7420617574686f72697a65640000000000000000000000000000000000005f82015250565b5f6132d1600e83612b66565b91506132dc8261329d565b602082019050919050565b5f6020820190508181035f8301526132fe816132c5565b9050919050565b7f53636f726520616c72656164792072657665616c6564000000000000000000005f82015250565b5f613339601683612b66565b915061334482613305565b602082019050919050565b5f6020820190508181035f8301526133668161332d565b9050919050565b5f6020820190506133805f830184612aa7565b92915050565b7f4e6f7420726561647920666f722072657665616c0000000000000000000000005f82015250565b5f6133ba601483612b66565b91506133c582613386565b602082019050919050565b5f6020820190508181035f8301526133e7816133ae565b9050919050565b5f6133f882612a9b565b915061340383612a9b565b9250828201905060ff81111561341c5761341b613159565b5b92915050565b5f61342c82612a9b565b915061343783612a9b565b9250828203905060ff8111156134505761344f613159565b5b92915050565b5f819050919050565b61347061346b82612a29565b613456565b82525050565b5f613481828761345f565b602082019150613491828661345f565b6020820191506134a18285612f0f565b6014820191506134b18284612f0f565b60148201915081905095945050505050565b7f4e487b71000000000000000000000000000000000000000000000000000000005f52601260045260245ffd5b5f6134fa82612a29565b915061350583612a29565b925082613515576135146134c3565b5b82820690509291505056fea264697066735822122024c0100f752c34aa6fc5e1846d9e1a4cc31465710d2228071d220305083ea82f64736f6c63430008180033",
  "linkReferences": {},
  "deployedLinkReferences": {}
}