{
  "_format": "hh-sol-artifact-1",
  "contractName": "AstralCompatibilityMock",
  "sourceName": "contracts/AstralCompatibilityMock.sol",
  "abi": [
    {
      "inputs": [],
      "stateMutability": "nonpayable",
      "type": "constructor"
    },
    {
      "anonymous": false,
      "inputs": [
        {
          "indexed": true,
          "internalType": "bytes32",
          "name": "matchId",
          "type": "bytes32"
        },
        {
          "indexed": false,
          "internalType": "uint8",
          "name": "score",
          "type": "uint8"
        }
      ],
      "name": "CompatibilityRevealed",
      "type": "event"
    },
    {
      "anonymous": false,
      "inputs": [
        {
          "indexed": true,
          "internalType": "address",
          "name": "user1",
          "type": "address"
        },
        {
          "indexed": true,
          "internalType": "address",
          "name": "user2",
          "type": "address"
        },
        {
          "indexed": false,
          "internalType": "bytes32",
          "name": "matchId",
          "type": "bytes32"
        }
      ],
      "name": "MatchRequested",
      "type": "event"
    },
    {
      "anonymous": false,
      "inputs": [
        {
          "indexed": true,
          "internalType": "address",
          "name": "user",
          "type": "address"
        }
      ],
      "name": "ProfileCreated",
      "type": "event"
    },
    {
      "inputs": [
        {
          "internalType": "uint8",
          "name": "_zodiac",
          "type": "uint8"
        },
        {
          "internalType": "uint8",
          "name": "_element",
          "type": "uint8"
        },
        {
          "internalType": "uint8",
          "name": "_quality",
          "type": "uint8"
        }
      ],
      "name": "createProfile",
      "outputs": [],
      "stateMutability": "nonpayable",
      "type": "function"
    },
    {
      "inputs": [
        {
          "internalType": "address",
          "name": "_user1",
          "type": "address"
        },
        {
          "internalType": "address",
          "name": "_user2",
          "type": "address"
        }
      ],
      "name": "generateMatchId",
      "outputs": [
        {
          "internalType": "bytes32",
          "name": "",
          "type": "bytes32"
        }
      ],
      "stateMutability": "pure",
      "type": "function"
    },
    {
      "inputs": [
        {
          "internalType": "bytes32",
          "name": "_matchId",
          "type": "bytes32"
        }
      ],
      "name": "getMatchInfo",
      "outputs": [
        {
          "internalType": "address",
          "name": "user1",
          "type": "address"
        },
        {
          "internalType": "address",
          "name": "user2",
          "type": "address"
        },
        {
          "internalType": "bool",
          "name": "isRevealed",
          "type": "bool"
        },
        {
          "internalType": "uint8",
          "name": "publicScore",
          "type": "uint8"
        },
        {
          "internalType": "uint256",
          "name": "matchTime",
          "type": "uint256"
        }
      ],
      "stateMutability": "view",
      "type": "function"
    },
    {
      "inputs": [
        {
          "internalType": "address",
          "name": "_user",
          "type": "address"
        }
      ],
      "name": "getUserProfileStatus",
      "outputs": [
        {
          "internalType": "bool",
          "name": "hasProfile",
          "type": "bool"
        },
        {
          "internalType": "uint256",
          "name": "timestamp",
          "type": "uint256"
        }
      ],
      "stateMutability": "view",
      "type": "function"
    },
    {
      "inputs": [
        {
          "internalType": "address",
          "name": "_user",
          "type": "address"
        }
      ],
      "name": "getUserStats",
      "outputs": [
        {
          "internalType": "uint256",
          "name": "matchCount",
          "type": "uint256"
        }
      ],
      "stateMutability": "view",
      "type": "function"
    },
    {
      "inputs": [
        {
          "internalType": "uint8",
          "name": "_zodiac",
          "type": "uint8"
        }
      ],
      "name": "getZodiacInfo",
      "outputs": [
        {
          "internalType": "string",
          "name": "name",
          "type": "string"
        },
        {
          "internalType": "uint8",
          "name": "element",
          "type": "uint8"
        },
        {
          "internalType": "uint8",
          "name": "quality",
          "type": "uint8"
        }
      ],
      "stateMutability": "pure",
      "type": "function"
    },
    {
      "inputs": [
        {
          "internalType": "bytes32",
          "name": "",
          "type": "bytes32"
        }
      ],
      "name": "matches",
      "outputs": [
        {
          "internalType": "address",
          "name": "user1",
          "type": "address"
        },
        {
          "internalType": "address",
          "name": "user2",
          "type": "address"
        },
        {
          "internalType": "uint8",
          "name": "compatibilityScore",
          "type": "uint8"
        },
        {
          "internalType": "bool",
          "name": "isRevealed",
          "type": "bool"
        },
        {
          "internalType": "uint8",
          "name": "publicScore",
          "type": "uint8"
        },
        {
          "internalType": "uint256",
          "name": "matchTime",
          "type": "uint256"
        }
      ],
      "stateMutability": "view",
      "type": "function"
    },
    {
      "inputs": [],
      "name": "owner",
      "outputs": [
        {
          "internalType": "address",
          "name": "",
          "type": "address"
        }
      ],
      "stateMutability": "view",
      "type": "function"
    },
    {
      "inputs": [
        {
          "internalType": "bytes32",
          "name": "matchId",
          "type": "bytes32"
        },
        {
          "internalType": "uint8",
          "name": "decryptedValue",
          "type": "uint8"
        }
      ],
      "name": "processScoreReveal",
      "outputs": [],
      "stateMutability": "nonpayable",
      "type": "function"
    },
    {
      "inputs": [
        {
          "internalType": "address",
          "name": "_partner",
          "type": "address"
        }
      ],
      "name": "requestCompatibilityMatch",
      "outputs": [],
      "stateMutability": "nonpayable",
      "type": "function"
    },
    {
      "inputs": [
        {
          "internalType": "bytes32",
          "name": "_matchId",
          "type": "bytes32"
        }
      ],
      "name": "revealCompatibilityScore",
      "outputs": [],
      "stateMutability": "nonpayable",
      "type": "function"
    },
    {
      "inputs": [],
      "name": "totalMatches",
      "outputs": [
        {
          "internalType": "uint256",
          "name": "",
          "type": "uint256"
        }
      ],
      "stateMutability": "view",
      "type": "function"
    },
    {
      "inputs": [
        {
          "internalType": "uint8",
          "name": "_zodiac",
          "type": "uint8"
        },
        {
          "internalType": "uint8",
          "name": "_element",
          "type": "uint8"
        },
        {
          "internalType": "uint8",
          "name": "_quality",
          "type": "uint8"
        }
      ],
      "name": "updateProfile",
      "outputs": [],
      "stateMutability": "nonpayable",
      "type": "function"
    },
    {
      "inputs": [
        {
          "internalType": "address",
          "name": "",
          "type": "address"
        }
      ],
      "name": "userMatchCount",
      "outputs": [
        {
          "internalType": "uint256",
          "name": "",
          "type": "uint256"
        }
      ],
      "stateMutability": "view",
      "type": "function"
    },
    {
      "inputs": [
        {
          "internalType": "address",
          "name": "",
          "type": "address"
        }
      ],
      "name": "userProfiles",
      "outputs": [
        {
          "internalType": "uint8",
          "name": "zodiac",
          "type": "uint8"
        },
        {
          "internalType": "uint8",
          "name": "element",
          "type": "uint8"
        },
        {
          "internalType": "uint8",
          "name": "quality",
          "type": "uint8"
        },
        {
          "internalType": "bool",
          "name": "hasProfile",
          "type": "bool"
        },
        {
          "internalType": "uint256",
          "name": "timestamp",
          "type": "uint256"
        }
      ],
      "stateMutability": "view",
      "type": "function"
    }
  ],
  "bytecode": "0x608060405234801561000f575f80fd5b505f80546001600160a01b0319163317815560015561140a806100315f395ff3fe608060405234801561000f575f80fd5b50600436106100f0575f3560e01c80636b9e9680116100935780639fe9ada3116100635780639fe9ada314610339578063b2bef0b0146103d6578063d833a51a146103e9578063f424939f146103fc575f80fd5b80636b9e9680146102d45780637a501d74146102e75780638ab92f48146102fc5780638da5cb5b1461030f575f80fd5b8063332d56d7116100ce578063332d56d7146101805780634e43603a146101fe5780634efe4f6a146102265780636b8a492814610248575f80fd5b80630821d0ef146100f45780632a5b1451146101265780632c2c4f9c1461012f575b5f80fd5b61011361010236600461119d565b60046020525f908152604090205481565b6040519081526020015b60405180910390f35b61011360015481565b61016961013d36600461119d565b6001600160a01b03165f9081526002602052604090208054600190910154630100000090910460ff1691565b60408051921515835260208301919091520161011d565b6101c961018e36600461119d565b60026020525f90815260409020805460019091015460ff80831692610100810482169262010000820483169263010000009092049091169085565b6040805160ff96871681529486166020860152929094169183019190915215156060820152608081019190915260a00161011d565b61011361020c36600461119d565b6001600160a01b03165f9081526004602052604090205490565b6102396102343660046111cd565b61040f565b60405161011d939291906111e6565b610299610256366004611245565b5f908152600360205260409020805460018201546002909201546001600160a01b03918216939183169260ff600160a81b8204811693600160b01b909204169190565b604080516001600160a01b0396871681529590941660208601529115159284019290925260ff9091166060830152608082015260a00161011d565b6101136102e236600461125c565b610762565b6102fa6102f536600461128d565b6107ee565b005b6102fa61030a36600461119d565b61091a565b5f54610321906001600160a01b031681565b6040516001600160a01b03909116815260200161011d565b610395610347366004611245565b60036020525f90815260409020805460018201546002909201546001600160a01b03918216929182169160ff600160a01b8204811692600160a81b8304821692600160b01b90049091169086565b604080516001600160a01b03978816815296909516602087015260ff93841694860194909452901515606085015216608083015260a082015260c00161011d565b6102fa6103e436600461128d565b610bc3565b6102fa6103f7366004611245565b610d96565b6102fa61040a3660046112cd565b610f1e565b60605f80600c8460ff161061043f5760405162461bcd60e51b8152600401610436906112ee565b60405180910390fd5b5f60405180610180016040528060405180604001604052806005815260200164417269657360d81b81525081526020016040518060400160405280600681526020016554617572757360d01b81525081526020016040518060400160405280600681526020016547656d696e6960d01b81525081526020016040518060400160405280600681526020016521b0b731b2b960d11b8152508152602001604051806040016040528060038152602001624c656f60e81b815250815260200160405180604001604052806005815260200164566972676f60d81b8152508152602001604051806040016040528060058152602001644c6962726160d81b81525081526020016040518060400160405280600781526020016653636f7270696f60c81b81525081526020016040518060400160405280600b81526020016a536167697474617269757360a81b81525081526020016040518060400160405280600981526020016821b0b83934b1b7b93760b91b815250815260200160405180604001604052806008815260200167417175617269757360c01b81525081526020016040518060400160405280600681526020016550697363657360d01b81525081525090505f6040518061018001604052805f60ff168152602001600160ff168152602001600260ff168152602001600360ff1681526020015f60ff168152602001600160ff168152602001600260ff168152602001600360ff1681526020015f60ff168152602001600160ff168152602001600260ff168152602001600360ff1681525090505f6040518061018001604052805f60ff168152602001600160ff168152602001600260ff1681526020015f60ff168152602001600160ff168152602001600260ff1681526020015f60ff168152602001600160ff168152602001600260ff1681526020015f60ff168152602001600160ff168152602001600260ff168152509050828760ff16600c811061071957610719611316565b6020020151828860ff16600c811061073357610733611316565b6020020151828960ff16600c811061074d5761074d611316565b60200201519550955095505050509193909250565b5f816001600160a01b0316836001600160a01b031610156107bf576040516001600160601b0319606085811b8216602084015284901b1660348201526048015b6040516020818303038152906040528051906020012090506107e8565b6040516001600160601b0319606084811b8216602084015285901b1660348201526048016107a2565b92915050565b335f818152600260205260409020546301000000900460ff166108235760405162461bcd60e51b81526004016104369061132a565b600c8460ff16106108465760405162461bcd60e51b8152600401610436906112ee565b60048360ff161061088b5760405162461bcd60e51b815260206004820152600f60248201526e125b9d985b1a5908195b195b595b9d608a1b6044820152606401610436565b60038260ff16106108d05760405162461bcd60e51b815260206004820152600f60248201526e496e76616c6964207175616c69747960881b6044820152606401610436565b50335f908152600260205260409020805460ff94851661ffff1990911617610100938516939093029290921762ff0000191662010000919093160291909117815542600190910155565b335f818152600260205260409020546301000000900460ff1661094f5760405162461bcd60e51b81526004016104369061132a565b6001600160a01b0382165f9081526002602052604090205482906301000000900460ff1661098f5760405162461bcd60e51b81526004016104369061132a565b336001600160a01b038416036109e75760405162461bcd60e51b815260206004820152601a60248201527f43616e6e6f74206d61746368207769746820796f757273656c660000000000006044820152606401610436565b5f6109f23385610762565b5f818152600360205260409020549091506001600160a01b031615610a505760405162461bcd60e51b81526020600482015260146024820152734d6174636820616c72656164792065786973747360601b6044820152606401610436565b5f610a5b338661106f565b6040805160c081018252338082526001600160a01b03898116602080850191825260ff8088168688019081525f60608801818152608089018281524260a08b019081528e8452600387528b84209a518b54908a166001600160a01b0319909116178b55965160018b0180549551935192518716600160b01b0260ff60b01b19931515600160a81b029390931661ffff60a81b1994909716600160a01b026001600160a81b031990961691909916179390931716929092171790935590516002909401939093559081526004909152908120805492935090610b3b8361136b565b90915550506001600160a01b0385165f908152600460205260408120805491610b638361136b565b909155505060018054905f610b778361136b565b90915550506040518281526001600160a01b0386169033907fcef58d824d8549ba1b05c2ab5812613eef1ece320a5a3d6531cbb358b5fb9f1c9060200160405180910390a35050505050565b600c8360ff1610610be65760405162461bcd60e51b8152600401610436906112ee565b60048260ff1610610c2b5760405162461bcd60e51b815260206004820152600f60248201526e125b9d985b1a5908195b195b595b9d608a1b6044820152606401610436565b60038160ff1610610c705760405162461bcd60e51b815260206004820152600f60248201526e496e76616c6964207175616c69747960881b6044820152606401610436565b335f908152600260205260409020546301000000900460ff1615610ccf5760405162461bcd60e51b815260206004820152601660248201527550726f66696c6520616c72656164792065786973747360501b6044820152606401610436565b6040805160a08101825260ff808616825284811660208084019182528583168486019081526001606086018181524260808801908152335f818152600290965289862098518954975195519351151563010000000263ff00000019948a1662010000029490941663ffff000019968a166101000261ffff199099169190991617969096179390931695909517949094178555519390920192909255915190917ff10ec97e920cde75887622583772c637595a40b1f7777c18e51ea36cd127475c91a2505050565b5f81815260036020526040902080546001600160a01b0316610df15760405162461bcd60e51b815260206004820152601460248201527313585d18da08191bd95cc81b9bdd08195e1a5cdd60621b6044820152606401610436565b80546001600160a01b0316331480610e15575060018101546001600160a01b031633145b610e525760405162461bcd60e51b815260206004820152600e60248201526d139bdd08185d5d1a1bdc9a5e995960921b6044820152606401610436565b6001810154600160a81b900460ff1615610ea75760405162461bcd60e51b815260206004820152601660248201527514d8dbdc9948185b1c9958591e481c995d99585b195960521b6044820152606401610436565b60018101805461ffff60a81b19811660ff600160a01b600160a81b60ff60a81b1990941684178190048216600160b01b029290921790921792839055604051920416815282907fe31c8f1463226f974347ee350a458c554258a8d622221fce911488a2755ed8a29060200160405180910390a25050565b5f546001600160a01b03163314610f685760405162461bcd60e51b815260206004820152600e60248201526d139bdd08185d5d1a1bdc9a5e995960921b6044820152606401610436565b5f82815260036020526040902080546001600160a01b0316610fc35760405162461bcd60e51b815260206004820152601460248201527313585d18da08191bd95cc81b9bdd08195e1a5cdd60621b6044820152606401610436565b6001810154600160a81b900460ff166110155760405162461bcd60e51b8152602060048201526014602482015273139bdd081c9958591e48199bdc881c995d99585b60621b6044820152606401610436565b60018101805460ff60b01b1916600160b01b60ff85169081029190911790915560405190815283907fe31c8f1463226f974347ee350a458c554258a8d622221fce911488a2755ed8a29060200160405180910390a2505050565b6001600160a01b038083165f90815260026020526040808220928416825281208054835492939260329160ff61010091829004811691909204909116036110be576110bb601482611383565b90505b8154835460ff620100009283900481169290910416036110e6576110e3600f82611383565b90505b8154835460ff91821691160361110457611101600a8261139c565b90505b604080514260208083019190915244828401526001600160601b031960608a811b82168185015289901b16607483015282518083036068018152608890920190925280519101205f6111576010836113b5565b90506111638184611383565b925060648360ff16111561117657606492505b50909695505050505050565b80356001600160a01b0381168114611198575f80fd5b919050565b5f602082840312156111ad575f80fd5b6111b682611182565b9392505050565b803560ff81168114611198575f80fd5b5f602082840312156111dd575f80fd5b6111b6826111bd565b606081525f84518060608401525f5b8181101561121257602081880181015160808684010152016111f5565b505f608082850101526080601f19601f83011684010191505060ff8416602083015260ff83166040830152949350505050565b5f60208284031215611255575f80fd5b5035919050565b5f806040838503121561126d575f80fd5b61127683611182565b915061128460208401611182565b90509250929050565b5f805f6060848603121561129f575f80fd5b6112a8846111bd565b92506112b6602085016111bd565b91506112c4604085016111bd565b90509250925092565b5f80604083850312156112de575f80fd5b82359150611284602084016111bd565b6020808252600e908201526d496e76616c6964207a6f6469616360901b604082015260600190565b634e487b7160e01b5f52603260045260245ffd5b6020808252601390820152725573657220686173206e6f2070726f66696c6560681b604082015260600190565b634e487b7160e01b5f52601160045260245ffd5b5f6001820161137c5761137c611357565b5060010190565b60ff81811683821601908111156107e8576107e8611357565b60ff82811682821603908111156107e8576107e8611357565b5f826113cf57634e487b7160e01b5f52601260045260245ffd5b50069056fea2646970667358221220148f65e4b30bc53d66b1a3f19ce0b33599333cac4a449384e718d0f0d5294c9b64736f6c63430008180033",
  "linkReferences": {},
  "deployedLinkReferences": {}
}