{
  "_format": "hh-sol-artifact-1",
  "contractName": "EthereumConfig",
  "sourceName": "@fhevm/solidity/config/ZamaConfig.sol",
  "abi": [
    {
      "inputs": [],
      "stateMutability": "nonpayable",
      "type": "constructor"
    },
    {
      "inputs": [],
      "name": "protocolId",
      "outputs": [
        {
          "internalType": "uint256",
          "name": "",
          "type": "uint256"
        }
      ],
      "stateMutability": "pure",
      "type": "function"
    }
  ],
  "bytecode": "0x608060405234801561000f575f80fd5b5061002c61002161003160201b60201c565b6100b760201b60201c565b610297565b61003961021b565b60405180608001604052805f73ffffffffffffffffffffffffffffffffffffffff1681526020015f73ffffffffffffffffffffffffffffffffffffffff1681526020015f73ffffffffffffffffffffffffffffffffffffffff1681526020015f73ffffffffffffffffffffffffffffffffffffffff16815250905090565b6100c6816100c960201b60201c565b50565b5f6100d86101f460201b60201c565b9050815f0151815f015f6101000a81548173ffffffffffffffffffffffffffffffffffffffff021916908373ffffffffffffffffffffffffffffffffffffffff1602179055508160200151816001015f6101000a81548173ffffffffffffffffffffffffffffffffffffffff021916908373ffffffffffffffffffffffffffffffffffffffff1602179055508160400151816002015f6101000a81548173ffffffffffffffffffffffffffffffffffffffff021916908373ffffffffffffffffffffffffffffffffffffffff1602179055508160600151816003015f6101000a81548173ffffffffffffffffffffffffffffffffffffffff021916908373ffffffffffffffffffffffffffffffffffffffff1602179055505050565b5f7f9e7b61f58c47dc699ac88507c4f5bb9f121c03808c5676a8078fe583e4649700905090565b60405180608001604052805f73ffffffffffffffffffffffffffffffffffffffff1681526020015f73ffffffffffffffffffffffffffffffffffffffff1681526020015f73ffffffffffffffffffffffffffffffffffffffff1681526020015f73ffffffffffffffffffffffffffffffffffffffff1681525090565b60bb806102a35f395ff3fe6080604052348015600e575f80fd5b50600436106026575f3560e01c8063da1f12ab14602a575b5f80fd5b60306044565b604051603b9190606e565b60405180910390f35b5f604b6050565b905090565b5f6001905090565b5f819050919050565b6068816058565b82525050565b5f602082019050607f5f8301846061565b9291505056fea2646970667358221220ab9d7c318af06ad3125d4b8c1f0e681edb0cc7a0f6c81b4dd657eed3de1f3ac264736f6c63430008180033",
  "linkReferences": {},
  "deployedLinkReferences": {}
}