{
  "_format": "hh-sol-artifact-1",
  "contractName": "SepoliaConfig",
  "sourceName": "@fhevm/solidity/config/ZamaConfig.sol",
  "abi": [
    {
      "inputs": [],
      "stateMutability": "nonpayable",
      "type": "constructor"
    },
    {
      "inputs": [],
      "name": "protocolId",
      "outputs": [
        {
          "internalType": "uint256",
          "name": "",
          "type": "uint256"
        }
      ],
      "stateMutability": "pure",
      "type": "function"
    }
  ],
  "bytecode": "0x608060405234801561000f575f80fd5b5061002c61002161003160201b60201c565b61010760201b60201c565b6102e7565b61003961026b565b604051806080016040528073687820221192c5b662b25367f70076a37bc79b6c73ffffffffffffffffffffffffffffffffffffffff16815260200173848b0066793bcc60346da1f49049357399b8d59573ffffffffffffffffffffffffffffffffffffffff16815260200173a02cda4ca3a71d7c46997716f4283aa851c2881273ffffffffffffffffffffffffffffffffffffffff168152602001731364cbbf2cdf5032c47d8226a6f6fbd2afcdacac73ffffffffffffffffffffffffffffffffffffffff16815250905090565b6101168161011960201b60201c565b50565b5f61012861024460201b60201c565b9050815f0151815f015f6101000a81548173ffffffffffffffffffffffffffffffffffffffff021916908373ffffffffffffffffffffffffffffffffffffffff1602179055508160200151816001015f6101000a81548173ffffffffffffffffffffffffffffffffffffffff021916908373ffffffffffffffffffffffffffffffffffffffff1602179055508160400151816002015f6101000a81548173ffffffffffffffffffffffffffffffffffffffff021916908373ffffffffffffffffffffffffffffffffffffffff1602179055508160600151816003015f6101000a81548173ffffffffffffffffffffffffffffffffffffffff021916908373ffffffffffffffffffffffffffffffffffffffff1602179055505050565b5f7f9e7b61f58c47dc699ac88507c4f5bb9f121c03808c5676a8078fe583e4649700905090565b60405180608001604052805f73ffffffffffffffffffffffffffffffffffffffff1681526020015f73ffffffffffffffffffffffffffffffffffffffff1681526020015f73ffffffffffffffffffffffffffffffffffffffff1681526020015f73ffffffffffffffffffffffffffffffffffffffff1681525090565b60bc806102f35f395ff3fe6080604052348015600e575f80fd5b50600436106026575f3560e01c8063da1f12ab14602a575b5f80fd5b60306044565b604051603b9190606f565b60405180910390f35b5f604b6050565b905090565b5f612711905090565b5f819050919050565b6069816059565b82525050565b5f60208201905060805f8301846062565b9291505056fea264697066735822122073b85a28c74cf2a82c535b114f49faa92b99be1968a19f2a5389709021bd2a0264736f6c63430008180033",
  "linkReferences": {},
  "deployedLinkReferences": {}
}